:020000041000EA
:1000000000B5324B212058609868022188439860DF
:10001000D860186158612E4B002199600221596106
:100020000121F02299502B49196001219960352056
:1000300000F044F80222904214D00621196600F024
:1000400034F8196E01211966002018661A6600F04E
:100050002CF8196E196E196E052000F02FF8012189
:100060000842F9D1002199601B49196000215960AB
:100070001A491B48016001219960EB211966A021F2
:10008000196600F012F800219960164914480160C1
:100090000121996001BC002800D000471248134993
:1000A000086003C880F30888084703B5996A0420EC
:1000B0000142FBD001200142F8D103BD02B5186610
:1000C0001866FFF7F2FF186E186E02BD00000240BE
:1000D000000000180000070000035F00212200005C
:1000E000F4000018222000A00001001008ED00E03C
:1000F00000000000000000000000000074B24E7A12
:1001000000200420F7010010C3010010C5010010F9
:10011000C1010010C1010010C1010010C101001097
:10012000C1010010C1010010C1010010C701001081
:10013000C1010010C1010010C9010010CB01001065
:10014000CD010010CD010010CD010010CD01001037
:10015000CD010010CD010010CD010010CD01001027
:10016000CD010010CD010010CD010010CD01001017
:10017000CD010010CD010010CD010010CD01001007
:10018000CD010010CD010010CD010010CD010010F7
:10019000CD010010CD010010CD010010CD010010E7
:1001A000CD010010CD010010CD010010CD010010D7
:1001B000CD010010CD010010CD010010CD010010C7
:1001C00000BE00BE00BE00BE00BE00BE00F04BF888
:1001D000103800BEF2EB8871747C0010987C00101F
:1001E0003402001090A31AE700202149086006C8D5
:1001F00081F3088810471F48006800282FD10DA4FC
:100200000ECC002902D000F012F8F9E71A491B4A77
:10021000002000E001C19142FCD1194988471949E9
:1002200088471949884700BEFDE701C901C29A42C3
:10023000FBD37047987C0010C0000020BC09002050
:100240009485001000000420000004209485001014
:1002500000100420001004200000000070470B482C
:1002600003F090FA0047EFF30580C0B2704700003A
:1002700008ED00E0000000D0C0090020DC100020E4
:1002800005210010C10C0010C520001057560000B9
:1002900006005250ABB360533C7B00100600525036
:1002A000861C03024C7B0010060052505422A29D73
:1002B000587B001005005250DE65F46894850010EC
:1002C000F8B5C04606480749091A8B10C90FC91866
:1002D00010B5491003D0044B002B00D0984710BD37
:1002E000BC090020BC09002000000000054B10B52F
:1002F000002B03D00449054800E000BFFFF7E2FFF0
:1003000010BDC04600000000DC0C00202858001082
:1003100070B506000D1C081C04F03CF984B2002CDA
:1003200012D0200004F00EF9011C281C04F0E1F8A2
:100330008721C90504F0FDF804F02CF9C3B21B02B3
:1003400024041C43346070BD0023F8E710B504009A
:100350001022002104F0E0F980235B022360F823DF
:100360005B0263608023DB02A360C0231B03A360E6
:10037000200010BD70B504000D00FFF7E7FFEA1C78
:10038000636809490B40ED012B431203134363607B
:10039000E268D200D208802189050A43E260034A5C
:1003A00013406360200070BD7F00FEFFFFFFFF9FD2
:1003B000F0B5CE46474680B587B004000D00160064
:1003C00098460EAB80CB1B7899462A4B98424DD06D
:1003D0000721404600F06AFD0123009342462900B0
:1003E000200004F05BFC310002A8FFF7C3FF059B6F
:1003F000214A134042469202134305934B46002B79
:1004000036D0202204991D4B194080239B020B43B8
:100410005206F82189050A40134304939B009B0868
:100420008022D20513430493052002F001F804F062
:1004300089F880461249381C04F07BF8011C4046BC
:1004400004F061F8011C02A8FFF762FF02AB320062
:100450002900200004F05AFC23680122AA4013431B
:10046000236007B0C0BCB946B046F0BD0621B0E776
:100470001822C7E700002050FF83FFFFFFFFF5C1F0
:100480000000204110B500F05FFD10BD0123834046
:10049000002903D0D022120653627047D0221206E0
:1004A0009362FAE710B50122042100F03DFD10BD72
:1004B00010B50122082100F037FD10BD034B186074
:1004C000034B00221A70034B1A707047240F002050
:1004D000D4100020D5100020014B18607047C04692
:1004E000280F0020014B18607047C046C80C002040
:1004F000014B18607047C046D80C0020014B1860B3
:100500007047C046C00C002030B5002300E0013326
:100510001C00C518C15C0A002D3AD2B2012AF6D9D6
:100520002029F4D020232B700134001900230370FC
:1005300030BD000070B50800002401E00134023233
:100540000A4B9500EB58002B0DD009498B4201D87E
:100550002E230355054B9500ED58054B9D42EDD9D3
:100560002D230355EAE7FFF7CFFF70BD3C0F0020B6
:10057000F0490200154B1B78002B03D0144B1B686D
:10058000012B04D0134B1B68012B0FD07047124A6C
:100590001368591C1160114A9B0011490968995050
:1005A0000A4B00221A700F4B1A60EFE70A4A1368D1
:1005B000591C1160094A9B000B4909689950034B6B
:1005C00001221A70074B00221A60DFE7B4010020F5
:1005D000240F0020280F0020C40C00203C0F002016
:1005E000C00C0020C80C0020D80C002070B50500FD
:1005F0000C00064E300004F0A7F905482A0021003F
:1006000004F0D4F9300004F09FF970BD7858001060
:100610002059001010B5104B1B78002B0ED10F4B3A
:100620001B78002B0BD10E4804F08EF90D4B0122E4
:100630001A600A4A137801214B40137010BD0A4812
:1006400004F082F9094B01221A60034A1378012150
:100650004B401370F2E7C046D5100020D4100020A4
:1006600074590010200F00208C590010040D002038
:1006700070B50A4D280004F067F9094C200004F019
:1006800063F9084804F060F9200004F05DF92800DF
:1006900004F05AF9200004F057F970BDA859001071
:1006A00078580010505A001070B50A4D280004F018
:1006B0004BF9094C200004F047F9084804F044F9CC
:1006C000200004F041F9280004F03EF9200004F075
:1006D0003BF970BDA859001078580010A45A0010BA
:1006E00010B5012802D002280DD010BD0B4804F02F
:1006F0002BF90B4804F028F90A4804F025F90A4BB5
:1007000002221A60F1E7094804F01EF9044804F0D7
:100710001BF9044804F018F9E7E7C046F85A00103E
:1007200078580010A8590010D00C00204C5B001025
:10073000002204E0054B91000020C8500132034B19
:100740009100CB58002BF5D17047C0463C0F0020DC
:1007500010B582B0234B1C68012C06D0224B1B68BD
:10076000002BF7D0FFF706FFF4E700221A601F4BBB
:100770001A681F486946FFF7DDFE1E49684604F007
:1007800071FE002816D01C49684604F06BFE002854
:100790001BD0FFF7CDFF07220021684603F0BCFF06
:1007A000164B00221A60114B01321A6000242000FF
:1007B00002B010BDFFF7BCFF07220021684603F01E
:1007C000ABFF0A4B01221A60F1E7FFF7B1FF0722E6
:1007D0000021684603F0A0FF044B01221A600224A6
:1007E000E5E7C046040D0020C80C0020CC0C00201A
:1007F0003C0F0020A05B0010A85B0010C40C002080
:1008000070B54B4C200004F09FF84A4804F09CF867
:10081000494804F099F8494804F096F8484804F02B
:1008200093F8484804F090F8474804F08DF8200009
:1008300004F08AF8454804F087F8454804F084F845
:10084000444804F081F8444804F07EF8434804F03A
:100850007BF8434804F078F8424804F075F84248C1
:1008600004F072F8414804F06FF8414804F06CF865
:10087000404804F069F8404D280004F065F83F480E
:1008800004F062F83E4804F05FF83E4804F05CF87B
:100890003D4804F059F83D4804F056F83C4804F04F
:1008A00053F83C4804F050F83B4804F04DF83B48FE
:1008B00004F04AF83A4804F047F8280004F044F8F5
:1008C000384804F041F8384804F03EF8374804F05E
:1008D0003BF8374804F038F8364804F035F8364825
:1008E00004F032F8354804F02FF8354804F02CF8BD
:1008F000344804F029F8344804F026F8200004F0C5
:1009000023F8324D280004F01FF8314804F01CF899
:10091000280004F019F82F4804F016F82E4804F0C7
:1009200013F8280004F010F8200004F00DF870BD52
:10093000A8590010B05B0010045C0010585C001057
:10094000AC5C0010005D0010545D0010A85D00104C
:10095000FC5D0010505E0010A45E0010F85E0010F8
:100960004C5F0010A05F0010F45F001048600010A2
:100970009C600010F060001044610010986100104D
:10098000EC6100104062001094620010E8620010F8
:100990003C63001090630010E463001038640010A2
:1009A0008C640010E064001034650010886500104D
:1009B000DC6500103066001084660010D8660010F8
:1009C0002C67001080670010D46700107858001062
:1009D000286800107C680010D0680010F0B5CE4682
:1009E000474680B59BB08146642003F083FE070034
:1009F000202301936022002102A803F08DFE002332
:100A00000026002526E0230030337B5501350123E5
:100A1000984601340023222C10DC1A4BA200D15836
:100A200001A804F01FFD0028F3D1092CEBDD230001
:100A300037337B55013501239846EAE74246002AC1
:100A400002D13F327A5501354A46915D01AAD1540F
:100A5000013301364A46925D002A09D0202AF3D19B
:100A6000013601AA0021D154002400229046D2E789
:100A70007D1900232B7038001BB0C0BCB946B046AE
:100A8000F0BDC0462003002030B59FB004002023F5
:100A900005936022002106A803F03EFE704B002261
:100AA0001A60704B1A60012C05D0022C06D06E48DB
:100AB00003F04AFF78E0FFF7DBFD75E0FFF7F4FD98
:100AC00072E06A4B5B68DB03FBD4684BFF221206C3
:100AD0001A6177E0654B5B68DB03FBD4634B644AC8
:100AE0001A616FE0614B5B68DB03FBD45F4B614ACB
:100AF0001A6167E0604803F027FF604803F024FFB5
:100B000078E0574B1B68002B0AD1564B1B68012B12
:100B100006D05B4B1B68002BF3D0FFF72BFDF0E7F3
:100B20004F4B1B68002B2AD14E4B00251D60554CA6
:100B3000226855486946FFF7FDFC5448694603F0B2
:100B400035FF694605A804F041FC05A804F0DAFC6D
:100B500005AB9C4660444E49022203F0E3FDFFF7DB
:100B6000E7FD4C4B1D60012323603D4B1B68012BAF
:100B700005D014220021684603F0CEFDC5E7384BAE
:100B800000241C6005A8FFF729FF05A9FFF72EFD2B
:100B9000FFF7CEFD3F4B1C603A4B01221A606332D7
:100BA000002105A803F0B8FD3B4B1B68002B25D0A6
:100BB0003A4A1268052A21D0022B8BD0032B80D011
:100BC000012B8FD0364B1B68012B93D000F06EFFAA
:100BD00004F0D8FB04F0E0FB642102F0FFFD314B90
:100BE0008900C958304C200004F080FC2F482100B7
:100BF00003F0DCFE2E4B00221A60B6E7002B1BD15F
:100C00001A4B5B68DB03FBD4184BFE22D2031A613C
:100C1000284803F099FE194803F096FE264803F091
:100C200093FE1D4B03221A601C4B00221A601C4BC2
:100C30001A6001201FB030BD0C4B5B68DB03FBD496
:100C40000A4B0C4A1A611D4B1868FFF749FD124BFD
:100C500003221A60114B00221A600020EAE7C04606
:100C6000040D0020200F00202469001000002050F7
:100C70000000FF8C0000D7FF40690010785800107A
:100C8000C80C0020CC0C00203C0F0020086A00108B
:100C9000146A0010240F0020B0010020140D002061
:100CA000100D0020B8010020080D0020F46900108C
:100CB000C40C0020A0690010A8590010D00C00201E
:100CC00010B582B003F07EFE1E491F4C200003F0D9
:100CD000C9FF0200012301931C4B00931C23002138
:100CE0002000FFF765FB00F03BF8FFF789FD164B8E
:100CF0005B68DB03FBD4144BFE22D2011A6109E0CE
:100D0000134C200003F020FE124803F01DFE2000CB
:100D100003F01AFE104B1B68002B06D1FFF718FDDD
:100D20000D4B186001380128EAD80B4B1868FFF703
:100D3000ABFE002800D0FEE7074B1868FFF7A4FEC3
:100D4000F9E7C0463C6E00100000205000504349B7
:100D500078580010186A0010D00C00200000000025
:100D600000B500F047F800F038F800F04CF800F05B
:100D700059F8002500260024002300BD00B53B4A99
:100D800011683B480A1A10D03A48091AFFD03A4A6B
:100D900011680D00002E16D0A81BFFF7A9FB01203B
:100DA000FFF79AFB334801270FE000F048F8324A7A
:100DB00011680E00701BFFF7A1FB0120FFF77EFBFF
:100DC0002B48002701E02B48FFE72C4A106001F078
:100DD000DDFB0120FFF786FB00BD294A1168742264
:100DE000521828481060284A012149031160274AF7
:100DF0001160704700B51920FFF744FB192001214D
:100E0000FFF744FB00BD00B51520FFF73BFB1520A5
:100E10000021FFF73BFB1520FFF744FB1520FFF7F0
:100E200047FB00BD1648016819484018194A02607E
:100E3000154A01201060154A01201060704700B566
:100E400001201549086015490868154940181549D9
:100E5000086000BD00B5012013490860B84204D005
:100E6000FFF7D8FBFFF7EBFF00BD00BD28410140B5
:100E7000000080000000400028400540F84001408C
:100E800008ED00E07D0D001080E200E000E100E0F0
:100E900040000000550E0010384005400C40054051
:100EA00040420F00104005403440054010B583001B
:100EB000084A944663441A684024624080341440CF
:100EC0008022520113431C60C000034B9C466044C7
:100ED000416010BD04C001400040014007230340B1
:100EE0009B00C00899403C308000014BC1507047C6
:100EF00000400140F8B507000C0016001D00FFF788
:100F0000EDFFFB089B00ED1807203840800084406F
:100F1000002E04D080239B012B431C60F8BDC0230E
:100F20009B012B431C60F9E710B5D0231B061B68FF
:100F3000002B03D0024BFFF7DDFF10BD014BFAE79A
:100F4000304101400041014010B501238340D022CF
:100F50001206936293610521FFF7A8FF10BD000000
:100F6000EFF3108072B6034B1B68002BFBD0BFF36E
:100F70005F8F70472C0100D0BFF35F8F024B0022C0
:100F80001A6080F3108870472C0100D0F8B5060075
:100F90000C001500FFF7E4FFE308F718F15C0722E7
:100FA0002240012393400B4205D1DBB20B433B703F
:100FB000FFF7E2FFF8BD2100280001F01FF9000053
:100FC000034B1B6802201840431E9841C0B2704773
:100FD00000C00640002307E0054A9A189200BFF3BC
:100FE0005F8F0021116001331F2BF5D97047C04678
:100FF00040000034054A1078431CDBB21370172BF5
:1010000002D9130010221A707047C046B0030020A6
:10101000074B9B68103080001950BFF35F8FBFF300
:101020005F8F044B0021196082F310887047C0461F
:1010300000ED00E0240100D010B50388DA0A1C2A74
:1010400005D15B055B1502335B00C01810BD034B77
:10105000034A0448A72101F039F8C0464C6E00103D
:10106000E06F0010646E001010B5091A0B1F0A4AD9
:1010700088180A4A904208D8C90706D45B105B0555
:101080005B0D0748184380B210BD064B064A07485F
:10109000992101F01BF8C046FC070000FE0F00007C
:1010A00000E0FFFFAC6E0010D46F0010646E001003
:1010B00010B5091A04394A08090B08D14905490D28
:1010C000064B0B430380064B1343438010BD054B77
:1010D000054A0648A12100F0F9FFC04600F0FFFFD5
:1010E00000F8FFFFDC6E0010A86F0010646E0010A7
:1010F00001238340034A10681840431E9841C0B240
:101100007047C04600E100E0002904D0034B18609E
:10111000034B18607047034B1860FBE780E200E068
:1011200000E100E080E100E010B5012383401800F9
:10113000FFF7EAFF10BD0000024B9B6810308000F3
:10114000C058704700ED00E070B504000D00EFF3EB
:10115000108672B60C4B1B68002BFBD0BFF35F8F61
:101160002000FFF7E9FF094B984201D0A84205D1C2
:10117000320029002000FFF74BFF70BD044B054AE9
:1011800005487C2100F0A2FF240100D0CD01001011
:10119000EC6E0010F06F0010646E0010F0B5CE46DB
:1011A000474680B583B006000D00EFF3108872B695
:1011B000504B1B68002BFBD0BFF35F8F4E4B9A68E0
:1011C00034001034A300D7584C4B9F4207D0AF4295
:1011D00000D18CE001974A4BFB1A2F2B09D94246CC
:1011E00039003000FFF714FF03B0C0BCB946B04669
:1011F000F0BD3000FFF77CFF814600213000FFF793
:1012000093FFBFF35F8FFFF72EF8002801D08442D1
:1012100011D10123019C9C430021A368AB4212D051
:101220000622A256002A0DDB53009B189B00344A6D
:101230002100D418F1E7334B334A2C213348FF31D6
:1012400000F044FF2100AB424AD106256557002D2E
:101250002CDB2B4B6A00521992009B189A68A260F3
:10126000DA79E2719B795BB2A371002B10DABD20B1
:101270000002A080224B6A00521992009B18244A57
:1012800011789971157049463000FFF74DFFA6E7B8
:101290006800401980001A4BC0180430FFF7CCFEDC
:1012A0000100231D1800FFF7DFFEE2E7002812D13E
:1012B00000290ED0FF238B71164B8B8014490B78BD
:1012C000A3710F4A144BA41A644163431B0D0B70A6
:1012D000D9E70A4FF2E71149201DFFF7E9FED2E7EF
:1012E0000F4B094A60210948FF3100F0EFFE034F20
:1012F00075E7C046240100D000ED00E0CD010010EC
:10130000B4030020246F0010C06F0010646E001042
:10131000D710002000BDFFFFAAAA0000EE030020A6
:10132000486F001070B50400012606432D4BF31AD8
:101330002F2B28D8FEF797FF00282BD0EFF3108C27
:1013400072B6294B1B68002BFBD0BFF35F8F254A79
:10135000264D2100891A49414D432D0D6DB2244B74
:101360009B6880001B58B3421BD00021032932D850
:101370001C4B4A00521892009B189B795BB2AB42FF
:101380001FD00131F2E71B4B1B4AC2211B48490009
:1013900000F09CFE1A4B184A88211848FF3100F0D3
:1013A00095FE134B9B68174A1A50174B1A78A27177
:1013B0001D70BFF35F8F0C4B00221A608CF31088F6
:1013C00070BD084B4A00501880001818FF2686711F
:1013D0000E4A8280E9E70E4B074ACC2107484900B4
:1013E00000F074FEB4030020240100D0AAAA00007B
:1013F00000ED00E0506F00108C6F0010646E001064
:10140000786F0010CD010010D710002000BDFFFF45
:10141000846F00100022044B02E0044902C3013231
:10142000072AFAD97047C04600E400E08080808037
:10143000024B9C46614489000160704740000034C3
:1014400010B500290AD003681B7B8B4206D3806845
:10145000054B9C4661440901401810BD034B044AEA
:1014600004483B2100F032FEFFFFFF0F0C7000101C
:10147000CC72001030700010F8B504001700FFF7B0
:10148000DFFF0668456839002000FFF7D9FF0268D2
:1014900043680120AB4201D802D00020C0B2F8BDA1
:1014A000B242FBD8F9E7000010B5002B02DB026066
:1014B000436010BD024B034A03483F2100F006FE83
:1014C00070700010987200108C70001070B582B0AF
:1014D000060014001D00069A079B12196B419D42DD
:1014E00002D804D1944202D901225242D31768464D
:1014F000FFF7DAFF009A019B32607360300002B0A0
:1015000070BD000010B5002908D0037B8B4205D3C5
:1015100000684B005B18033BC01810BD024B034A28
:101520000348682100F0D2FDDC70001074720010D6
:10153000F870001010B5437B8B4201D1012010BD23
:10154000FFF7E0FF8378002B01D10020F7E70120AF
:10155000F5E770B50400857B002D01D1280070BD32
:101560002900FFF7CFFF4378A373002B00D1E3736B
:101570000023837043700370F0E70000F8B50600A5
:101580000C001500FFF7BEFF0700002C0DD0002D4A
:1015900011D0AC4215D029003000FFF7B3FF8470A2
:1015A0003B78002B13D13D70F8BD0A4B0A4A0B481B
:1015B0006F2100F08BFD0A4B074A0848702100F0AC
:1015C00085FD084B044A0548712100F07FFD4370FA
:1015D0003D70E9E74C71001050720010F870001077
:1015E000587100106471001070B506000D001400F1
:1015F000002914D0002A14D0436880689847002836
:1016000006D0220029003000FFF7B8FF280007E0CD
:101610002A0021003000FFF7B1FF200000E0100099
:1016200070BD0800FCE7000070B504000D1E0CD072
:10163000FFF768FF0023837043700370617B2A000B
:101640002000FFF7D1FF607370BD034B034A0448CD
:10165000A52100F03BFDC0467C71001064720010B3
:10166000F870001070B505000C1E08D0FFF762FF7F
:10167000002804D1E97B002907D1EC7370BD054B2C
:10168000054A0648F62100F021FD2800FFF73AFF41
:101690004470F2E78071001040720010F870001082
:1016A00010B5002907D003681B7B8B4203D3C068A9
:1016B0000139401810BD034B034A0448402100F093
:1016C00005FDC0460C7000102C7200103070001028
:1016D00070B505000C00080000F0DCF9200000F0F7
:1016E000ADFA0849200000F0EDF9FFF783FC064B46
:1016F0009C466044800068602C75044BA400E55053
:1017000070BDC046C917001040000034F40C002022
:1017100010B582B0040000F0C9F902000B00684661
:10172000FFF7C2FE009A019B22606360200002B0B6
:1017300010BD0000F0B583B0070001921D000AAB98
:101740001C780BAB1E78002C0BD000682100FFF733
:10175000F1FE002809D0194B194A1A48652100F0FA
:10176000B5FC0068FFF7F5FE0400002C02D1200054
:1017700003B0F0BD21003800FFF762FE019B03605B
:101780004560089B8360099BC36038682100FFF7B0
:101790004BFFA042EBD1387D019A2B0000F0DAF923
:1017A000051E01D0002E04D00C9B002BDFD01D7035
:1017B000DDE73868210000F079FBF5E7A47100103F
:1017C0008072001030700010F0B5DE4657464E466D
:1017D0004546E0B58FB00B900021784B8200D4587D
:1017E000894682E029002000FFF72AFE8046026831
:1017F0004368921BBB41002B09DD43461A685B68B6
:101800000B9800F0A7F900239846002689E0002BEA
:1018100001D1002AF1D10021584600F03DFB07001C
:10182000A84215D143461A685B680892099343465B
:101830009E68DB689846002E10D029002000FFF734
:101840002FFF037899461B021F432761002068E0A1
:101850005B4B5C4A5C488C2100F038FC5B4B594A7E
:101860005948902100F032FC2369002B77D0BB420D
:1018700019D106980799002342428B4100920193A7
:10188000089A099B0CA8FFF721FE0C9A0D9B0021DA
:101890000491013103910295414601910096200087
:1018A000FFF748FF16E04A4B464A47489F2100F0A1
:1018B0000DFC069A079B002B01D1002A52D120680B
:1018C0002900FFF7CFFE29002000FFF7E9FE03788B
:1018D00001330370002323616268BFF35F8F1360DD
:1018E0008AF310880120002861D00CA8FFF710FFB0
:1018F0000C9E0D9F00220023089209936268EFF36B
:10190000108A72B61368002BFCD0BFF35F8F236878
:101910009B465D7B002D00D064E70023984600269F
:1019200000206368BFF35F8F00221A608AF310887B
:10193000002ED8D04B461F022F4341463800B047F7
:10194000069007916268EFF3108A72B61368002B55
:10195000FCD0BFF35F8F079B002B00DA84E7079B67
:10196000002BA6DD2369002BA9D0BB4219D10CA8FE
:10197000FFF7CEFE0C9A0D9B0698079900900191F7
:101980000CA8FFF7A3FD0C9A0D9B002104910131D7
:10199000039102954146019100962000FFF7CAFE8F
:1019A00098E70B4B074A0848A22100F08FFB0FB0C5
:1019B000F0BCBB46B246A946A046F0BDF40C0020E0
:1019C000CC710010B072001030700010E471001083
:1019D000F071001010B50A4B5B68002B04D0094869
:1019E0000A21FFF725FD10BD054C074A206823009A
:1019F000102100F0CAF903212000FFF769FEEEE78D
:101A0000FC0300201C0F00207914001070B5EFF3C8
:101A100005833F2018401038EFF3108C72B6184B36
:101A20001B68002BFBD0BFF35F8F0123190081409F
:101A3000144A5163144A12781400C440234213D04C
:101A4000104B5C6A114B8500EB589C4205D3104B40
:101A5000EB580D4C8A43227007E00A4A031D9B0095
:101A600099589950002300E00023BFF35F8F044A88
:101A7000002111608CF31088002B00D0984770BDB6
:101A8000280100D000400540D81000202C0F002075
:101A9000380C002010B50100024A034B1800FFF774
:101AA00075FA10BDD8720010D6100020044B5B6A86
:101AB000034A906A1900536A9942F9D17047C046A7
:101AC0000040054070B504000E00EFF3108572B6BB
:101AD0001B4B1B68002BFBD0BFF35F8F002E1CD06D
:101AE0002000FFF729FB174B83420BD01900200081
:101AF000FFF72AFB01212000FFF716FB0123A3407B
:101B0000114A1360114BA400E650BFF35F8F0C4BDA
:101B100000221A6085F3108870BD0C4BA2000021D2
:101B2000D1500122A2400A490B7893430B7005491A
:101B30002000FFF733FB00212000FFF7F5FAE4E770
:101B4000280100D00D1A001038600540380C002024
:101B5000D8100020F0B5DE4600B584B004001500B2
:101B600001921E000293FFF7A1FF03958E4202D857
:101B70004ED185424CD9EFF3108B72B6274B1B68C0
:101B8000002BFBD0BFF35F8F254A17780125A540B6
:101B9000EBB23B431370234B5D63221D920001990E
:101BA000D150214AA100029888501B6A2B4212D1C1
:101BB0001C4B1B6C2B4208D00020BFF35F8F174BD0
:101BC00000221A608BF3108823E0184B184A19483A
:101BD000C12100F07BFAFFF769FF8E4214D802D1D1
:101BE000039B834210D80E4B1B78BB420ED00D4B8B
:101BF0001D625D631F222240012393400E4A136041
:101C0000074B1F700120D8E70020D6E70120D4E75A
:101C1000012004B080BCBB46F0BDC046280100D006
:101C2000D8100020004005402C0F0020FC7200104E
:101C30006C7300102073001080E200E0EFF3108C52
:101C400072B60B4B1B68002BFBD0BFF35F8F0123D9
:101C50008340084A136208490A789A430A70BFF31E
:101C60005F8F034B00221A608CF310887047C046C8
:101C7000280100D000400540D810002010B50029F0
:101C800008D0037B8B4205D300684B005B18033BF5
:101C9000C01810BD024B034A0348682100F016FA31
:101CA000DC7000107C740010F8700010F8B50600AD
:101CB0000C001500FFF7E2FF0700002C0DD0002DEF
:101CC00011D0AC4215D029003000FFF7D7FF847047
:101CD0003B78002B13D13D70F8BD0A4B0A4A0B48E4
:101CE0006F2100F0F3F90A4B074A0848702100F011
:101CF000EDF9084B044A0548712100F0E7F94370FB
:101D00003D70E9E74C71001068740010F870001025
:101D1000587100106471001070B506000D001400B9
:101D2000002914D0002A14D04368806898470028FE
:101D300006D0220029003000FFF7B8FF280007E096
:101D40002A0021003000FFF7B1FF200000E0100062
:101D500070BD0800FCE770B5050000234373013334
:101D60008373037BC373012406E021002800FFF77F
:101D700085FF0134E4B24470297BA142F5D82800E4
:101D8000FFF77CFF0023437070BD10B50173426004
:101D90008360FFF7E0FF10BDF0B5C64600B5050053
:101DA0000C1E03D1200080BCB846F0BDFFF766FFD3
:101DB0004678002EF6D031002800FFF75FFF477805
:101DC00000239846437021002800FFF757FF434641
:101DD0004370320021002800FFF79EFF0400390005
:101DE0002800FFF7D9FF020021002800FFF794FF29
:101DF0000400D7E7F0B5C64600B504000D00170093
:101E0000002920D0FFF73AFF4378002B21D18378B7
:101E1000002B24D101782000FFF7BEFF060080468A
:101E2000002F03D0E17B00291FD1E5734346002B2F
:101E300020D129002000FFF721FF0023437030004C
:101E400080BCB846F0BD0F4B0F4A1048382100F057
:101E50003DF90F4B0C4A0D483A2100F037F90D4B74
:101E6000094A0A483B2100F031F92000FFF706FF3C
:101E70004570DAE731002000FFF700FF0023837090
:101E8000D7E7C04688730010547400109073001098
:101E9000D0730010F873001070B504000A00457B81
:101EA0002900FFF7A7FF6073280070BD70B506001A
:101EB0000C1E40D0437B8B4207D0FFF7DFFE0500AE
:101EC0008178002906D1002036E00121FFF7E4FFE8
:101ED000012031E03000FFF7D1FE0178A1420DD0A2
:101EE0003000FFF7CBFE4178A1420AD00029F7D19C
:101EF000124B134A1348673100F0E8F86B7803700F
:101F000001E06B7843700023AB706B7001222100FD
:101F10003000FFF76FFF0200717B814205D0300077
:101F2000FFF7FAFE7073012006E0074B044A0548EC
:101F30006D2100F0CBF8002070BDC046846F00100A
:101F40003C740010907300101C74001010B5040055
:101F5000FFF750F801002000FFF76AFAFF23237112
:101F6000BFF35F8F10BD10B50400FFF743F8010009
:101F70002000FFF75DFAFF23237100236371BFF395
:101F80005F8F10BD70B504000D00062000F050FA00
:101F9000C000290001F04AFCC60908D00E4B9E4241
:101FA00017D87F230340013335005E0800E0012588
:101FB0006562A6622C3480239B01234300221A60B1
:101FC000062000F035FA8000A901891901F02EFCE5
:101FD00070BD0026014DEBE7FEFF0000FFFF000093
:101FE000002909D00A22064B9C46604443425841CE
:101FF000044B4000C252704780225200F3E7C046B3
:102000000080FCBFCC10002070B505000C0006203D
:1020100000F00EFA002829D0164B9D4227D08022CE
:10202000D203154B1A60154B1A60154B9B681100B3
:102030009943FAD100212800FFF7D2FF21002800A0
:10204000FFF7A0FF29002C31EB6A602253400E32CB
:102050001A4080235B010B431A600A4B2B638023D9
:102060009B010B4310221A600323AB6470BD8022D6
:102070001204D6E70080034000E0004000F000407A
:1020800000C000400103000000BEFDE703000A4A53
:102090001268002A08D0084A1068C318074A9A42F2
:1020A00006D3054A13607047034A05491160F2E7F9
:1020B00001204042F7E7C046BC0C0020000004208D
:1020C000DC10002010B5FFF7DFFF000030B583B053
:1020D0000D001900002A0BD0074B084C0192009309
:1020E0002B000200200002F061FC0120FFF7CCFF72
:1020F000034B1A00F1E7C046287500103875001030
:102100009C69001070B52B4B2B4A1A602B4B2C4A44
:102110001A602C4B9A682A4B9343FAD12A4C01E05F
:1021200008CC9847294B9C42FAD300F001F9234B85
:10213000274A1A60234B9B68DB43DB01FAD1254B0E
:1021400040229A675A671A67DA66234C09E0234BE4
:10215000234A24488321FFF7B9FF2000FFF7F6FE4A
:102160000834214B9C4209D22368002BF5D0012B67
:10217000EDD12000FFF7F7FE0834F2E71B4DA96808
:102180001B4CC022200002F0CDFAAC60FEF76BF8C9
:10219000002800D000BEFEF71DFFFFF73BF9FFF758
:1021A00019FC144C01E008CC9847134B9C42FAD31D
:1021B00070BDC04600E00040BFCDFBFE00F0004017
:1021C000FE7F3C0000C00040A8090020B8090020A4
:1021D000FFFFFF0100F00140A0090020687500101A
:1021E000E475001088750010A809002000ED00E0DB
:1021F00000000020B8090020BC0900200FB400B581
:1022000083B0084802F0A0FB049B002B07D005A96F
:102210000191180002F0A8FB034802F095FB012091
:10222000FFF732FFD47500101C590010F8B5DE46D8
:1022300057464E464546E0B506000F0015000A9A7F
:1022400093424ED31A0E92461B0298460A9A0023D6
:102250004046514601F02CFB81467400A419A400AD
:102260002E4B9C4664446368834200D26060331FF7
:10227000DBB29B46012B3AD9C0239B01234380222A
:1022800012011A60264BB200D158002905D05869B6
:1022900001F0CCFA01300138FDD16D0123685D40B9
:1022A000E0222A4080235B0123431A605A46012A18
:1022B00028D980239B012343802212011A604B46B8
:1022C00063604A4600234046514601F0F1FA144B40
:1022D000B60098510120F0BCBB46B246A946A046C4
:1022E000F8BD104B104A11482D21FFF7EFFE012FCA
:1022F000C2D1C0239B01234303221A60A368DB07DA
:10230000FCD5CAE72168794003220A401A60A36815
:102310000125BD401D42FAD0CBE7C04600800040F9
:10232000480C0020F4750010547600100876001058
:1023300030B583B00C2000F021F9FEF741FE0028F3
:102340000DD0002304E02E4A99002E488850013316
:10235000092BF8D92A4B2C4A5A6203B030BD2B4BBB
:1023600000229A6700F01CF9294B01221A60274BC2
:102370005B6C012BFBD1274B03221A60234B9B6B19
:10238000012BFBD1013300930433234A012123485D
:1023900000F054F805230093214A0121214800F060
:1023A0004DF8214B0093002202210420FFF73EFF4D
:1023B0001E4D00952B00002201210520FFF736FF5E
:1023C000104C00942300002200210720FFF72EFF6D
:1023D00000942300002200210820FFF727FF0A4B6A
:1023E00000932300002200210920FFF71FFF009522
:1023F0002B00002200210620FFF718FFADE7C046A2
:10240000480C0020006CDC021BB70000008000407C
:102410003CB0004030B00040002F685900800240BE
:10242000008C864700C00240001BB700405973076C
:10243000014B8000C0587047480C0020F0B5C646DC
:1024400000B504000F0090461D000C2001F0EEF9CD
:1024500006003D4A42443D4B9A4243D843011B1A71
:102460009901C91AC90009188901404601F0DEF92D
:102470000200103A98235B009A4239D86B1E062B53
:102480003CD8069B013B062B38D8069B9D423BD38C
:1024900043461B09B3423DD32D04069B1E0335431F
:1024A0002368002B3CDB2A4B9C424AD080235B01F3
:1024B000284A1360284A1360284A926819009143F9
:1024C000FAD12760A060221DC0239B011343212263
:1024D0001A602268002AFCDAE56008221A6080BCD3
:1024E000B846F0BD1E4B1F4A1F481121FFF7EEFDF5
:1024F0001E4B1C4A1C481921FFF7E8FD1C4B194ACA
:1025000019481C21FFF7E2FD1A4B164A16482221F2
:10251000FFF7DCFD184B134A13482521FFF7D6FDC2
:1025200022683F231340BB42BDD1A3681B051B0D8E
:102530008342B8D1E368EE22D2021340AB42B2D15B
:10254000CDE780239B01B3E780E84BD380F8A93225
:1025500000C0024000E0004000F0004000C0004029
:1025600064760010A8770010C47600100C77001075
:1025700028770010747700108C77001080239B0060
:102580000343014AD362704700800540024B1A683A
:10259000024B5A607047C046D40C002000800540B2
:1025A000064BAA2212011A602F22DA60044B054A58
:1025B0001A60024B5B68002BFBDA70470040024058
:1025C0000060024000B0FA00704710B5002802D049
:1025D0000B684968984710BD0100002007E08300A0
:1025E0001B185B00501C08601078C01830380A684F
:1025F0001378303BDBB2092BF1D97047F0B5DE46DA
:1026000057464E464546E0B583B093461F000C9BA7
:102610009A460D9C0E9B99460F9B9B0703D0B8468C
:102620000F00060022E00192A34688464E46B946B6
:102630000700B44207D2551C4B4641462020B847FC
:1026400001342A00F5E73D004F465C46019B9B465E
:10265000B1464646B84637002E0007E0013C551CFF
:102660005346185D43463900B0472A00002CF5D187
:1026700035003E0047460F9B9B0707D4100003B070
:10268000F0BCBB46B246A946A046F0BDB0464E4699
:10269000B9462F005D46531BB342EFD2541C4B4644
:1026A00041462020B8472200F5E7F0B5CE46474620
:1026B00080B585B0944698460C9D0D9C0EAB1B785A
:1026C0009946109A119B129EB7071CD4002B0CD070
:1026D000F7070AD54F46002F02D10C37374204D0F6
:1026E000013B02E030272F550134944201D21F2CC8
:1026F000F8D9F70707D59C4205D21F2C03D83027FD
:102700002F550134F5E7F70612D5770505D4002CCF
:1027100003D0944221D09C421FD00F9A102A32D06D
:102720000F9A022A37D01F2C0AD830222A5501349A
:102730001F2C05D84A46002A33D02D222A550134B1
:10274000039602930194009543466246FFF756FFB5
:1027500005B0C0BCB946B046F0BD621E012C10D019
:102760000F9F102F0BD014000F9A102AD8D1B20649
:10277000D6D51F2CD4D858222A550134D3E7023C91
:10278000CBE71400C9E7B206EED41F2CECD87822B0
:102790002A550134C7E71F2CD2D860322A5501349C
:1027A000C1E7720703D52B222A550134C8E7320747
:1027B000C6D520222A550134C2E7F0B5DE46574679
:1027C0004E464546E0B593B081468A460892099345
:1027D0001CAB10CB1B789B461E9D219B9846002C62
:1027E00003D1102342469A4390468023DB0046469D
:1027F0001E4042461A4212D0002C22D000260EE083
:102800003033D9B2771C0AAB99552900200001F06A
:102810000DF8AC4216D31F2F14D83E000400290037
:10282000200001F003F8CBB2092BE9D94246920609
:1028300005D54121C918C9B20A39C9B2E2E76121F7
:10284000F8E7270043460693209B05931F9B0493BC
:1028500003955B46029301970AAB0093099B089A84
:1028600051464846FFF721FF13B0F0BCBB46B246C5
:10287000A946A046F0BDF0B5DE4657464E46454651
:10288000E0B597B00A900B910C929A46209B99461E
:10289000219F22AA13789B46249B0993259C289B61
:1028A00098464A463A4302D11032934398468022D2
:1028B000D20045461540434613420AD04A463A43A1
:1028C00041D000252E0053460D934D46099B9A4654
:1028D0001BE02E0053460D934D46099B9A4614E08B
:1028E0003033DAB2731C99460EAB9A555246230028
:1028F0002800390000F0DCFFBC4226D819D04B4636
:102900001F2B1CD84E4605000F00524623002800FE
:10291000390000F0CDFFD3B2092BE1D9424692062F
:1029200005D54122D218D2B20A3AD2B2DAE76122F0
:10293000F8E7AA45E3D94E460D9B9A4608E04E4675
:102940000D9B9A4604E0002602E04E460D9B9A46F7
:1029500043460693279B0593269B0493099B039369
:102960005B46029301960EAB009353460C9A0B996B
:102970000A98FFF79AFE17B0F0BCBB46B246A946CC
:10298000A046F0BDF0B5DE4657464E464546E0B59A
:1029900091B0804689460C929A461A9C1B9D220053
:1029A0002B002000290001F012FA002800D0ECE0F2
:1029B00001225242D44B2000290001F003FA0028E2
:1029C00000D0E2E001225242D04B2000290001F069
:1029D000E3F9002800D0D8E00022002320002900DD
:1029E00001F0DAF9002800D0E4E00694079580238E
:1029F000DB001E9A1A400D921E9A1A4201D106233C
:102A00001C930698079902000B0008920993030093
:102A10000A00024300D1D9E0080D4005400DBC4E2C
:102A2000B44660440A03120B1E00BA4B13431F0046
:102A300001F0E0F9B84AB94B01F06BF9B84AB94B6B
:102A400001F040F9089009910022B74B300039009D
:102A500001F02FF9B54AB64B01F05BF902000B000B
:102A60000898099901F02EF901F0DCF9834601F08C
:102A7000C1F906000F00AF4AAF4B01F04AF900223E
:102A8000AE4B01F01FF901F0CDF90890AC4AAD4B07
:102A90003000390001F03DF906000F00089801F000
:102AA000A9F9A94AA94B01F034F902000B00300042
:102AB000390001F0FEF806000F0002000B0001F0E3
:102AC00028F90A900B91089BA14A9446634400217F
:102AD0000022089109921B050993002308933200F4
:102AE0003B003000390001F0EDF80E900F913200FC
:102AF0003B0000208021C90501F0DBF806000F0033
:102B00000022944B0A980B9901F0E5F80022924BB1
:102B100001F0D8F802000B000A980B9901F0DBF8DD
:102B200000228E4B01F0CEF802000B000A980B99A0
:102B300001F0D1F802000B003000390001F0C2F8BA
:102B400002000B000E980F9901F0C5F80022714B9E
:102B500001F0B8F8089A099B01F0DBF806000F00B5
:102B600008960997069A079B01F02CF900282FD0A8
:102B700001235B429C46E3440022774B300039003E
:102B800001F0A9F80890099122E01E9B04931D9B77
:102B900003931C9B02930094019553460C9A49465B
:102BA000404600F0FFF811B0F0BCBB46B246A94663
:102BB000A046F0BD002100220691079206948023D2
:102BC0001B069C46AC446346079310E700239B46D4
:102BD0005B466333C62B20D804261E9B1B0528D5D5
:102BE000089A099B190011430FD05D4A5D4B069866
:102BF000079901F0DFF800287AD000225A4B069896
:102C0000079901F0C9F8002872D01C9B5B4506DDCE
:102C10005A469B1A013B1C9303E00526DDE700237F
:102C20001C938023DB001E9A1A431E920026002369
:102C30009B461D9B9E4265D29F1B02231E9A1A40F3
:102C40000A921E9A134202D0002E00D000275B4643
:102C5000002B07D0089A099B0698079901F03BF8CA
:102C600006900791002200232000290001F094F82B
:102C7000002800D07CE03D4B1E9A1340049303973C
:102C80001C9B0293069B079C0093019453460C9A4D
:102C90004946404600F086F8002E00D183E71E9B8F
:102CA0009B0671D54525441C534602004946280021
:102CB000C0475A46D317D2185A4005230593013E00
:102CC0000496002303930A3302935B46DB0F0193C0
:102CD00000925346220049464046FFF76EFD0A9B8C
:102CE000002B00D15FE7020047460C9E1D9D53E07C
:102CF0001C9B002B9DD00D9B002B9AD01C9B013B55
:102D00001C9396E7002798E7FFFFEF7FFFFFEFFF99
:102D100001FCFFFF0000F03FFB799F501344D33FBD
:102D2000B3C8608B288AC63F0000F83F61436F63D9
:102D3000A787D23F71A379094F930A400000E03F73
:102D40001655B5BBB16B0240EF39FAFE422EE63F95
:102D5000FF03000000002C40000024400000184049
:102D60002D431CEBE2361A3F80842E41FFF7FFFF14
:102D7000069C079D220029008020000684466144AD
:102D80000B000692079376E765258CE7541C5346A3
:102D900049462020B8472200931BAB42F6D31000CF
:102DA00001E7C046F0B5DE4657464E464546E0B51B
:102DB00095B00690079193469946209F1E9A1F9BB7
:102DC0001000190001F003F8002831D1012252420D
:102DD000BF4B1E981F9900F0DFFF002837D101225A
:102DE0005242BC4B1E981F9900F0ECFF00283DD1C9
:102DF0000022B94B1E981F9900F0E4FF002850D123
:102E00000022B64B1E981F9900F0C6FF002848D13B
:102E1000002200231E981F9900F0BEFF002850D109
:102E200000239846229B5B0500D4B6E0002458E0BE
:102E3000229B0393219B029303230193A84B0093AE
:102E40004B465A4607990698FFF7D8FB0EE1229B9E
:102E50000393219B029304230193A24B00934B46BF
:102E60005A4607990698FFF7C9FBFFE00423229A08
:102E70001A4022990B4210D09B4B002A0FD00422FB
:102E80002299039121990291019200934B465A464F
:102E900007990698FFF7B2FBE8E0944BEDE70322B1
:102EA000EEE7229B0493219B039302971E9B1F9C9A
:102EB000009301944B465A4607990698FFF762FD26
:102EC000D4E01E9A1F9B0020002100F0F2FE1E900D
:102ED0001F9101239846A5E70CAB30221A55013FFC
:102EE00001341F2C01D8092FF6D81E981F9900F025
:102EF00099FF050000F07EFF02000B001E981F994D
:102F000000F0D7FE7A4BFA009B181A685B680A92A9
:102F10000B9300F0FEFE0890099100F0A7FF060059
:102F200000F064FF02000B000898099900F0C1FE50
:102F30000890099100226F4B00F044FF00282ED02A
:102F40000136300000F052FF02000B000A980B9986
:102F500000F028FF002801D001350026002F2CD1D9
:102F6000280000F047FF02000B001E981F9900F098
:102F7000A0FE06000F0000225E4B00F00DFF0028AF
:102F800046D100225B4B3000390000F01BFF0028C7
:102F90003ED1EB073CD501353AE0062746E7002253
:102FA000544B0898099900F0F7FE0028D6D1002E5E
:102FB00001D0F307D2D50136D0E7AA461F2C11D88D
:102FC000013F0A21300000F031FC651C30310CABB0
:102FD00019550A21300000F029FC092E0ED90600EF
:102FE0002C00EBE755461F2C0CD87B1E002F09D078
:102FF0000CAA302111551F000134F4E72B0055466F
:103000001C00F0E71F2C03D80CAB2E221A550134FC
:103010001F2C10D80A21280000F0E0FB661C30317C
:103020000CAB19550A21280000F0D8FB051E01D071
:103030003400EDE734000323229A1340012B1CD007
:103040001F2C06D84346002B32D00CAB2D221A552C
:103050000134229B0393219B029301940CAB0093B8
:103060004B465A4607990698FFF7C8FA15B0F0BCC8
:10307000BB46B246A946A046F0BD219B002B13D00B
:103080004346002B02D10C3313420FD0219B013B4E
:103090002193190003E00CAB30221A5501348C4205
:1030A000CED21F2CF7D9CBE72199F8E72199F6E783
:1030B000229B5B0704D50CAB2B221A550134C8E7C1
:1030C000229B1B07C5D50CAB20221A550134C0E743
:1030D000FFFFEFFFFFFFEF7F65CDCD4165CDCDC198
:1030E000C0770010C4770010B4770010BC770010D0
:1030F000687900100000E03FF0B5DE4657464E46C6
:103100004546E0B593B08246884693461193002920
:1031100000D106E300255646119B1878002800D1FF
:1031200002E3252809D06C1C5B462A004146B047C3
:10313000119B013311932500EEE701331193002712
:1031400020E001231F4301321192012418E00223E1
:103150001F4301321192012412E004231F43013264
:10316000119201240CE008231F4301321192012423
:1031700006E010231F4301321192012400E00024D5
:10318000002C09D0119A1378203BD9B21029F6D817
:103190008B00C449CB589F46119B1A781300303BD3
:1031A000DBB2092B10D92A2A13D00B94119B1A7861
:1031B0002E2A1ED0119A1378683BD9B2122959D8F9
:1031C0008B00B949CB589F4611A8FFF705FA0B9021
:1031D000ECE71C9B1A1D1C921B68002B04DB0B9355
:1031E000119B01331193E1E7022217435B420B93DA
:1031F000F6E78022D20017435A1C11925A78130026
:10320000303BDBB2092B0BD92A2AD3D11C9B1A1DC8
:103210001C921C68002C08DB119B01331193C9E739
:1032200011A8FFF7D9F90400C4E70024F4E78023CC
:103230005B003B43511C119151786C2901D01F0058
:1032400018E0C0239B001F430232119212E080233A
:103250003B43511C11915178682901D01F0009E0AE
:10326000C0231F430232119204E080235B001F43FE
:1032700001321192119B1878672816D8252826D379
:103280000300253BDAB2422A21D89300874AD3585B
:103290009F4680239B001F4301321192EAE780235F
:1032A0005B001F4301321192E4E778280FD86928A8
:1032B0000DD30200693AD2B2012393407C4A1342F3
:1032C0000FD11A0600D507E25B0500D594E16C1C0E
:1032D0005B462A004146B047119B013311932500FC
:1032E0001AE778280AD062283AD06F283BD05828AD
:1032F0003CD010239F43063B9C4601E010239C4694
:10330000582836D0692803D0642801D00C2297436E
:103310007A0501D50122974369282DD064282BD046
:10332000BA0500D5A2E0FA0500D5C3E07A0600D4BC
:10333000D5E01C9A111D1C911168FF220A400597C7
:103340000B9B049303946346029300230193009222
:103350005B462A0041463000FFF72FFA05002AE0BD
:1033600002239C46CCE708239C46C9E710239C46D1
:10337000C6E720221743C5E7BA0520D4FA0550D482
:103380007A0666D51C9A111D1C911168FF220A400D
:10339000D0171118414005970B9B04930394634683
:1033A0000293D20F019200915B462A004146300001
:1033B000FFF703FA0500119B01331193ACE61C9A49
:1033C000073207218A43110008311C9111685368A4
:1033D0009946DB170C930D930C9A0D9B10004840F7
:1033E0000E904A4653400F930E980F990C9A0D9BDE
:1033F000801A99410E900F9108970B9B07930694A2
:1034000063460493002305934B46DA0F0292009023
:1034100001915B462A0041463000FFF72CFA050077
:10342000C9E71C9A111D1C911268D0171118414050
:1034300005970B9B0493039463460293D20F01926A
:1034400000915B462A0041463000FFF7B6F90500BF
:10345000B1E73A0605D51C9A111D1C910023D25ED6
:1034600096E71C9A111D1C91126891E71C9A07326D
:1034700007218A43110008311C9108970B9B079381
:1034800006946346049300230593029353681268DD
:10349000009201935B462A0041463000FFF7EBF9AA
:1034A000050088E7CC770010107800105C780010D9
:1034B000419000001C9A111D1C9105970B9B0493D1
:1034C00003946346029300230193136800935B46C1
:1034D0002A0041463000FFF770F905006BE73A0615
:1034E00006D51C9A111D1C9112681204120C26E7B5
:1034F0001C9A111D1C91126821E7462819D01C9BAB
:103500000733072293431A0008321C9204970B9A40
:10351000039202941A685B68009201935B462A004A
:1035200041463000FFF73EFC0500119B013311932B
:10353000F2E520231F43E2E7672801D0472802D1A4
:1035400080231B011F43452801D0472801D1202398
:103550001F431C9B0733072293431A0008321C9217
:1035600004970B9A039202941A685B680092019385
:103570005B462A0041463000FFF704FA0500119B24
:1035800001331193C8E502231A003A4091463B42A9
:103590001DD001241C9B1A1D1C926F1C18785B46C1
:1035A0002A004146B0474B46002B14D1119B0133F2
:1035B00011933D00B0E5571C5B4641462020B047C3
:1035C00023003A005C1C9D42F5D81500E2E7012378
:1035D0002A000B9DF6E73A00B1460B9E06E0571C09
:1035E0005B4641462020C8472C003A00651CA64295
:1035F000F5D817004E46D9E71C9B1A1D1C921B6874
:103600009A46002C25D101225242534601E0013353
:103610000A001978002902D0511E002AF7D152461B
:103620009B1A8022D200390011408946174202D0ED
:10363000A34200D9230002221100394010913A42DE
:1036400009D02A00250057469A4633004E4699462F
:1036500021E02200D9E72A004546A04606E0541C96
:103660005B4629002020B0473B0022005F1C0B99DD
:103670009942F4D84446A8463B00250057469A464E
:1036800033004E46994606E01D000137541C5B4648
:103690004146C84722003878002804D0002EF4D0D4
:1036A0006B1E002DF0D1150053464E46109A002A8D
:1036B00003D1119B013311932EE50B9F2A0006E0E5
:1036C000551C5B4641462020B04723002A005C1C65
:1036D0009F42F5D81500ECE721233B431C9A111DAE
:1036E0001C911268059308230493039408330293F2
:1036F0000023019300925B462A0041463000FFF709
:103700005CF80500119B0133119305E56C1C5B46C9
:103710002A0041462520B047119B01331193250013
:10372000FAE40B4B9A46F5E4B2465D450DD35B4691
:103730005A1E5B4641460020D047280013B0F0BC1B
:10374000BB46B246A946A046F0BD2A00F1E7C046F6
:10375000C925001000B585B00290039101210448ED
:10376000009313004A4202A9FFF7C6FC05B000BD52
:10377000CB25001001480421014B184730040020DC
:10378000A537001010B5010018231B8814221088DB
:10379000984710BD10B5010018231B881622108809
:1037A000984710BDF0B5C64600B507000E000025CD
:1037B0000123984600E00135B5420AD2AC003C191D
:1037C0002068FFF7DFFF20600028F4D1002398462F
:1037D000F1E7404680BCB846F0BD0000124A936F46
:1037E0009B0815D29066D166002905D0FFE7FFE758
:1037F000FFE7516F106F704704B580210906C217AB
:103800005140002800D0C84301F0F6FF002104BD5C
:10381000F0B5146E556E576F166FFFF7E3FF146621
:10382000556657671667F0BD000000D0114A936FC8
:103830009B0813D210665166002905D0FFE7FFE709
:10384000FFE7516F106F704704B5002801D00020CA
:10385000C04301F0D1FF002104BDC046F0B5146E95
:10386000556E576F166FFFF7E5FF1466556657677D
:103870001667F0BD000000D094464E4A926F920841
:10388000624601D230E0C046F0B54A4EB56F6D08D1
:10389000FCD3346E756E776F366F00F025F8944662
:1038A000444A14665566576716676246F0BDC046BF
:1038B0009446404A926F9208624601D258E0C04650
:1038C000F0B53C4EB56F6D08FCD3346E756E776FF6
:1038D000366F00F04DF89446364A146655665767C1
:1038E00016676246F0BDC046002B24DB11D00029CC
:1038F0003EDA00B5C943404200D1013100F038F84A
:10390000C943404200D10131DB43524200D101336F
:1039100000BD002AEBD1002801D1002905D00020EC
:10392000C90FC90701D1C043410800B501F05CFFD0
:103930000022002300BD00B500290ADBDB43524210
:1039400000D1013300F014F8C943404200D10131E5
:1039500000BDC943404200D10131DB43524200D196
:10396000013300F005F8DB43524200D1013300BDC2
:10397000002923D1002B18D1002A0CD0BC460D4FB2
:1039800038667A6600210023FFE7FFE7FFE77A6FDA
:10399000386F67467047002801D00748010000B51E
:1039A00001F022FF0022002300BD02000B000020D6
:1039B00000217047000000D0FFFFFFFF002B00D068
:1039C000BFE0130C28D1002AE7D080B4114F39662C
:1039D0007A66FFE7FFE730B4040C7B6F396F1B0496
:1039E00023433B667A66FFE7FFE7FFE7C04684B202
:1039F0007B6F3D6F1B0423433B667A66FFE7FFE75F
:103A0000C04600232C042D0C7A6F386F00196941D1
:103A1000B0BC7047000000D0F0B594460025140EED
:103A200001D112020835140F01D112010435940F8F
:103A300001D192000235D40F01D152000135D40BCF
:103A40000134254F7C66254C3C660E0C93B2FFE793
:103A5000FFE7FFE73C6F6643360C7703BE467343D0
:103A6000DF0B5B04C01AB941130C7343DB18C91A8E
:103A7000CE086643360CB64493B273431F0F1B0146
:103A8000C01AB941130C73431F0B1B05C01AB9416F
:103A9000860D8F023E436643360C092D24DB520A05
:103AA0007243801A7703460A6643360C16235B1B63
:103AB000DE40DF40BF1964466643821B7046043512
:103AC00006330100D940A840C01900D30131A242F9
:103AD00006D20023F0BD0000000000D0FFFFFFFF72
:103AE000121B0130F3D3F1E709277F1BFE40644628
:103AF000A2B27243801A00D20139220C7243130C15
:103B00001204821A99410B007046043513370100E4
:103B1000F940A840801900D30131002B02D1A24204
:103B20000AD2F0BD013000D30131121BFAD2013BA1
:103B3000F8D1A24200D2F0BD013000D30131121BF6
:103B4000F7E7F0B51C0C00D080E00CB400251C0A8F
:103B500004D11B02160E3343120208351C0B04D18C
:103B60001B01160F3343120104359C0B04D19B003B
:103B7000960F334392000235DC0B02D192185B4161
:103B800001351C00971864410134464F7C66464C51
:103B90003C660E0CFFE7FFE7FFE7C0463C6F66435D
:103BA000360C7703BE4697B27743C01B00D201396B
:103BB000C01B00D201399FB27743C91BC91B170C28
:103BC00077437E04FF0B801BB941CE086643360C59
:103BD0000C2D33DBB644120B1F053A431B0B97B277
:103BE0007743C01B00D201399FB27743C91B170C22
:103BF00077433E043F0C801BB941860D8F023E4344
:103C0000664329277F1BFE400C3D7746AF40BF1916
:103C100030BCA2B2ABB272437343801A9941220CFA
:103C20007243130C1204801A994102000B000137F1
:103C3000001BA941F9D2781E0021F0BD0C277F1B83
:103C4000FE4077467F0BAF40FF19E0E700245D1C84
:103C500007D0144F7D663966FFE7FFE7FFE7FFE710
:103C60003C6F95B29EB265436643401BB141150C53
:103C70001E0C6543664336042F0C3E432D04401B47
:103C8000B141994204D202000B0020000021F0BD96
:103C900001D19042F7D3801A994101349942F2D36D
:103CA000F6E70000000000D0FFFFFFFF4840414062
:103CB000484018B41B4B5B68FC46019308BD04DF09
:103CC0008B3F001018B4174B1B68FC46019308BDCE
:103CD00000DF953F00109446134A926F920809D274
:103CE000624618B40F4BDB68FC46019308BD0CDF3D
:103CF0004D4200100C4AF0B5146E556E576F166F9A
:103D00006246FFF7EEFF084A146655665767166766
:103D1000F0BD18B4034B9B68FC46019308BD08DF57
:103D2000F1400010180D0020000000D0FFB55040F9
:103D30004240504059404B40594000E0FFB5154FBC
:103D40004C00640D03D0BC4204D10C0314D80020F5
:103D5000090D09055C00640D03D0BC4204D11C03AD
:103D60000AD800221B0D1B0501264B4009D44B40ED
:103D700003D58B4200D18242FFBD9942FCD19042D3
:103D8000FFBD0B43DB1803431343F5D0C943491868
:103D9000FFBD0000FF07000000B5FFF7CFFF804127
:103DA00000BDC04600B5FFF7C9FF01D9002000BD26
:103DB000012000BD00B5FFF7B9FF01D9002000BD0B
:103DC000012000BD00B5FFF7B1FF804100BD01201B
:103DD00040054A00121804D85A00121801D80020D1
:103DE0007047012070470020704700000021002824
:103DF00005D17047C1174840401AFAD0C90713B51A
:103E0000064B1B6898470CBC441CA2401005120BC3
:103E10000349091B09051943114310BD180E002061
:103E20001F04000010B54C00620D8023D218DB0087
:103E3000D21A5B057E2A10DD9E3A13DACC170903ED
:103E4000490819435242D140640001341532202AF6
:103E500005DAD0400843604310BD002010BD08467D
:103E6000604310BDC80FC018013810BD18B4044B12
:103E70005B6AFC46019308BD24DFFD43001000008F
:103E8000180D002070B513231C78012C12D0012CC2
:103E900012DC214B214A93642148FFF773FC214B2C
:103EA000186070BD1C491D4A9800815001331F2BBA
:103EB000F8D9ECE70023FAE71B48FFF76BFC050095
:103EC0001A48FFF767FC023803789B007F2B09DD57
:103ED00012488022290000F025FC022C08D0022C78
:103EE000DADCD6E7124B134A13483221FEF7EEF81C
:103EF000124B1A88B5231B029A4209D1104B1A881B
:103F0000104B9A4204D1104B1A88104B9A42E6D0BB
:103F10000020FEF773F9C046513F0010180D002035
:103F20004C330000180E002053440000534600009C
:103F3000B8790010687A0010187A00105438000020
:103F4000D8380000494600009C380000594600005F
:103F500007B56046002800D100BE01880A0A023079
:103F6000DF2AFAD1C9B2820804D30288408800044B
:103F7000104300E00068024A5050039007BD000063
:103F8000180D00200FB403BC0CBCF0B50124E407ED
:103F9000634000E0F0B50C0DCF0F661E3605891B9F
:103FA000640503D3C943404200D30131640D03D0FB
:103FB000661CF60A07D0E41B00207F00791C8907E5
:103FC0008912803C24031D0DDF0F6E1E36059B1BDE
:103FD0006D0503D3DB43524200D301336D0D03D093
:103FE0006E1CF60A07D0ED1B00227F007B1C9B078E
:103FF0009B12803D2D032F1B661B58D4A446202EF8
:1040000046DA20371400BC401D00BD40F240334169
:104010002A4380185941CB0F05D0C943C043002221
:1040200064425041514162464D0D28D10D0D07D1DA
:1040300000281FD0241940414941013A0D0DF9D003
:10404000640006D3013000D30131002C01D14008B7
:104050004000013A0BD4941CE40A04D11205114427
:10406000DB071944F0BDD907204B194300E0D907FD
:104070000020F0BD0029DDD1002CDBD1F0BD0132E4
:10408000C6074008CD0728434908002EE1D0D9E7EC
:104090003C2E29DA203E40371400BC4000D00124D9
:1040A000F24014431A00BB401C43D317ACE7AC46A4
:1040B000202F08DA20360400B4400D00B540F84047
:1040C00039412843A5E73C2F0CDA203F4036040055
:1040D000B44000D00124F84004430800B1400C4330
:1040E000C117EAE710001900002494E70000F07FF0
:1040F000F0B50C0D661E3605891BE60A6405640DD5
:1041000002D0651CED0A04D0002001210905803C85
:104110002403A4461C0D671E3F05DB1BE70A64054C
:10412000640D02D0651CED0A04D0002201231B059A
:10413000803C24037740644497B484B296B27443BD
:10414000070C7E43150C6F4380B26843361802D3C8
:10415000012000043F183004350C00197D418446CD
:1041600088B29AB250430C0C62431F0C7C438EB24F
:104170007E43921902D301263604A4191604170CA3
:104180003618674101BC81B29AB25143040C6243B4
:104190001B0C5C4380B25843121802D30120000468
:1041A00024181004130C401863412D185E410020A0
:1041B000474106BC88B293B258430C0C6343120CBF
:1041C000544389B251435B1802D301210904641896
:1041D00019041A0C091862416D1856410020474114
:1041E00018BCF902720D1143F0026A0D1043ED0282
:1041F0000A0D03D16D1940414941013B124E9B1BF1
:104200007600B3420ED26D0007D301300026714113
:104210006646354301D1400840001B05C918E40734
:104220002144F0BD0BDA013306D1013004D1013154
:104230004F0D01D04908F2E7E1070020F0BD01363B
:1042400031050020EBE70000FF030000F0B51C0D76
:10425000671E3F05DB1BE70A6405640D02D0661C80
:10426000F60A04D0002201231B05803C2403D0253C
:104270002D060026F6432E661E096E66CE0FF61931
:10428000B44649004F0D02D07E1CF60A03D0002030
:104290000021403F3F033E1BB600B444013F7F0571
:1042A000C91B49082E6F013676089C02950D2543DF
:1042B0007543ED137543AD1301356D10F603761B91
:1042C0000CB4CC02450D2C43A2B2B3B25A43270C16
:1042D0007B43350C6F43A4B26C431B1902D30124FA
:1042E00024043F191C041D0CA4187D4124196D41A0
:1042F000009A91B2ACB26143170C7C432B0C5F4324
:1043000092B25A43A41802D301221204BF18220405
:10431000230C52187B41019C6C431B19520ED9018E
:104320000A434401A01A81B2B2B2514303145A4362
:10433000360C734387B27743D617D21900277E41D4
:1043400036049B191704160C7F185E417316ED187E
:10435000F301002680337541A90F06D16400690A74
:10436000E8055B0A184309D22FE004229444803305
:104370007541A90AA8059B0A184326D34041494123
:104380002404009A019B0D005543641B4343E41A27
:1043900095B286B27543170C7E43030C5F4392B20D
:1043A0005A43B61802D301221204BF183204330C48
:1043B00052197B4152429C41002C02D40022013010
:1043C00051414008CA071043490802B06246D70766
:1043D0009210084BD218084B9A4203D21205891842
:1043E000C919F0BD0020002A01DC3900F0BD0133FD
:1043F0001905F5E7FD030000FE070000002200B5E7
:10440000203200F004F8080000BD000000220B1567
:104410000AD410B5944600F031F81414013400DACF
:104420000021CB17144C2047002000217047624424
:10443000343A0CD40C2A07DA0400914090405242DE
:104440002032D440214310BDD843D94310BD20327F
:1044500007D40C469440524220321141D0402043B0
:1044600010BD0800C917203203D452422032104137
:1044700010BD1800190010BD2F4400100A0DCC0FFC
:10448000531E1B05C91A520503D3C943404200D32A
:104490000131520D03D0531CDB0A07D0121B002040
:1044A0006400611C89078912803A1203014BD21AF9
:1044B00070470000FF03000051434343C9188C4676
:1044C000110C83B24B4310B4040C614392B280B21E
:1044D000504362431C041B0C001910BC59411304C7
:1044E000120CC018514161447047000048404140DF
:1044F000484000239C46114B5B68184700239C46AC
:104500000E4B1B6818470E4A936F9B0804D200237A
:104510009C460A4BDB681847F0B5146E556E576F12
:10452000166FFFF7F4FF064A14665566576716675D
:10453000F0BD00239C46014B9B6818471C0E0020D1
:10454000000000D0491A002808D108467047000032
:10455000C10FC90700D54042002817D0F44603B464
:104560000B4B1B68984706BC81409E384042803107
:1045700007D20B0607D04900490AC005104308437B
:1045800060470130F8E7490A8902F5E77047000003
:10459000180E002000239C46014B5B6A1847000060
:1045A0001C0E002070B513231E782A48FFF7F2F87E
:1045B0000500012E11D0012E09DDAB1E1B789B00DA
:1045C0007F2B40DD24488022290000F0ABF82348EF
:1045D000FFF7D8F8224B186070BD1F4854222900FD
:1045E00000F0A0F81F4B1A881F4B9A421CD1A7233A
:1045F0009B011A881D4B9A4216D11D4B1A881D4BE0
:104600009A4211D11C4B1A8894239B019A420BD1D8
:104610001A4B1A881A4B9A4206D11A4B1A681A4B2F
:104620009A4201D1152307E01848FDF7E7FD184C21
:10463000094A99008C5001331F2BF8D9144B064AB4
:104640001362D361B7E7134B134A14484221FDF7B5
:104650003DFDC046534600001C0E00204C330000B8
:10466000180E0020EE290000C40F0000C20D00004B
:10467000962B0000C0B50000182B0000CC2A0000CB
:1046800010B50000FC2C000051ED87649C690010FF
:10469000A14600107C7A0010007B0010B07A001058
:1046A00007B56046002800D100BE01880A0A023022
:1046B000DF2AFAD1C9B2820804D3028840880004F4
:1046C000104300E00068024A5050039007BD00000C
:1046D0001C0E002010B5002804D04018034B98424F
:1046E00000D810BD0248FDF789FDC0460000042037
:1046F000147B001070B5050000F062FB0400290077
:10470000FFF7E8FF200070BD01480421014B184766
:1047100040040020A5370010014B1B68184700001B
:1047200040040020014B5B68184700004004002053
:1047300010B50300080011001B68984710BD000069
:10474000F8B507000D001600437C002B02D00024B2
:1047500000200CE003681100280098472DE03B7C06
:1047600010E03B68154802219847601C0134B442B0
:1047700014DA002CF3DD2B19013B1B780D3B5A4258
:104780005341DBB22A5D0A2AF0D1002BEED1A042C0
:10479000E7DA3B68211A28189847E2E7B04203DAC3
:1047A0003B68311A28189847002E06DDAD19013DE7
:1047B0002B780D3B5A4253413B74F8BD887B001067
:1047C00070B505000368002B16D00C4B1C6805E083
:1047D000290004C92000FFF7B3FFE468002C09D0CA
:1047E0002368002BF9D0064B1B68002BF0D0A342A6
:1047F000F3D1EDE700232B6070BDC046B00C002064
:10480000B80C002070B505000C000B68802B05D09B
:1048100023685A1C2260E418257170BD0800FFF758
:10482000CFFFF5E710B582B0D0231B0600241C573C
:10483000074801A900F0E8FF002806D1019B9C422F
:1048400003D0034800F0E8FF012002B010BDC046CD
:10485000A009002010B5024800F0BEFF10BDC04600
:10486000A0090020F0B5CE46474680B583B00600CB
:104870000D0090461C00FFF7D5FF81466B1C05D04C
:10488000002C08D0194F1A4B1C6807E0300000F0CC
:1048900039FE0500F4E7174FF5E7E468002C17D060
:1048A0002368002BF9D0144B1B68002B01D0A342C6
:1048B000F3D12A0031002000B8474346002BECD04A
:1048C0006B46D91D0A230B7001222000B847E4E78C
:1048D0004B46002B07D16B1E9D41E8B203B0C0BC14
:1048E000B946B046F0BDFFF7B5FFF4E73147001019
:1048F000B00C002041470010B80C0020094A01E02C
:104900000C331A001368002B08D08342F8D1002919
:1049100007D1C36813600023C36002E0002900D000
:1049200010607047B00C002010B5064B1C6801E009
:104930009847E468002C03D06368002BF8D1F8E7AF
:1049400010BDC046B00C002070B5050000F0DAFDC7
:1049500004000023012201002800FFF783FFFFF776
:10496000E3FF200070BD000070B5A2B004000E008F
:10497000FFF758FF05008422002101A8FFF7CCFEB5
:1049800009483300220001A9FEF7E4FE040001A853
:10499000FFF716FFFFF7C8FF002D02D1200022B05D
:1049A00070BDFFF757FFF9E7054800100FB400B5D9
:1049B00083B004A901C90191FFF7D6FF03B008BC79
:1049C00004B0184710B500F08BF810BD10B582B0D8
:1049D0000C00144BC3185A425341134A5B009B5EB0
:1049E0008B4204D06B46DA1D1470002115E06B4633
:1049F000DA1D0D23137000210029F3D183699B0672
:104A0000FCD41378036001310132F5E783699B061A
:104A1000FCD413780360013101320029F6D002B0D2
:104A200010BDC0460080FCBFCC10002082B0002228
:104A30006B46D91D06E08369DB06FCD403680B7066
:104A400001320131002AF6D06B46D87902B07047A6
:104A500070B506000D00002405E0315D034B1868B9
:104A6000FFF7B4FF0134AC42F7DB70BDD01000207B
:104A7000F8B506000D00002405E0671C3419FFF7A7
:104A8000D5FF20703C00AC4204DA054A1068826908
:104A9000D206F2D5002C01D02000F8BD033CFBE784
:104AA000D010002070B515001C000B4B1860FDF7EE
:104AB000ABFA002D06DA002C09DA08480121FFF7CD
:104AC0001DFF70BD02212800FCF7F0F9F3E7022179
:104AD0002000FCF7EBF9F0E7D01000205004002094
:104AE00010B5064B1B78064B1B78E12101230022F1
:104AF00049020448FFF7D6FF10BDC046947C001061
:104B0000907C00100040034010B5040010220021EA
:104B1000FFF702FE80235B022360F8235B026360E1
:104B20008023DB02A360C0231B03A360200010BD11
:104B30000523CB56002B01DB934211D1094B9C4638
:104B4000604443425841084B8000C0580979012312
:104B50008B40013B9340184043425841C0B27047DC
:104B60000020FCE70000D0AF300C002070B50A79BF
:104B7000202A19D8174B9C46604443425841164B93
:104B80008000C45801239340013B497949B2002970
:104B900010DB08002025AA1A914218DC8B401C4229
:104BA00001D00120404270BD0C4B0D4A0D48402100
:104BB000FDF78CFA2020801A002805DB1A008240BD
:104BC0001442F0D00138F7E701204042EBE7012022
:104BD0004042E8E70000D0AF300C0020CC7B001052
:104BE000547C0010F87B001070B505000C00160016
:104BF000FFF79EFF002801D0002107E01648FDF7CF
:104C0000FDFA8B1912339B005A51013123798B42E3
:104C100011D9227863781B021343A27812041A4335
:104C2000E3781B0613434A009A5A80239B019A4259
:104C3000E7D29219E5E701229A401300013B074AA7
:104C4000944665446A4255410549AD006A58B340EF
:104C500013436B5070BDC046407C00100000D0AFC5
:104C6000300C0020F8B505000E00FCF779F90700BC
:104C700031002800FFF77AFF041E09DB0200310033
:104C80002800FFF7B1FF3800FCF776F92000F8BDE7
:104C90000148FDF7B3FAC046407C0010F0B505AC02
:104CA00025784C006418E4000419DC342468A44618
:104CB000002D01D01F2614E0002612E05401A0258B
:104CC0006D0525434C006418E40004192700DC3707
:104CD0003D600D4D3543D8342560053B05321F241A
:104CE0002240052BEAD89B06520113434C00621860
:104CF000D20082181500DC352B60034B3343D832C9
:104D0000136063462B60F0BD80E00000F0B585B015
:104D100004000D00160002680121A9408A430260C8
:104D2000002B35D0186869004919C90061180A00BC
:104D3000C8321060586804321060986804321060FD
:104D4000DB68DC310B606A005319DB00D033E318F9
:104D5000802149010B438021090619601960174B16
:104D6000AB40A3602168281D01231F008740394301
:104D7000216021682800083083400B4323601F23F3
:104D800033405219D200A418D834236005B0F0BDC6
:104D90006846FFF7B9FE00996B005B19DB00E3186A
:104DA0001A00C8321160019904321160029904326C
:104DB0001160039ADC331A60C5E7C04601010101A6
:104DC00010B5034B0100186800F004F810BDC04690
:104DD00078080020F0B54E464546DE465746E0B519
:104DE0000D000B35060085B0162D27D8102900D9E7
:104DF000B9E000F0B7FA102518230220C74FFB18BE
:104E00001A005C68083A944200D11EE103226368EC
:104E10009343E268A168CA6091600121E3185A686F
:104E200030000A435A6000F0A5FA2000083005B0AF
:104E3000F0BCBB46B246A946A046F0BD07239D4341
:104E400000D590E0A94200D98DE000F08BFAFC2358
:104E50005B009D4200D27DE1680A00D187E0042812
:104E600000D928E138239846A80980443930C10088
:104E7000AA4F79184C680839A1420ED003239C46EA
:104E800004E0002AC5DAE468A14206D062466368FD
:104E900093435A1B0F2AF4DD40463A003C6908321E
:104EA000944200D1C1E0032163688B43591B0F2951
:104EB00000DD53E13A617A610029AEDA8022920086
:104EC000934200D3C7E05909DA0801238B40D2008E
:104ED0007968D2190B4391687B60E260A1609460AD
:104EE000CC60012182109140994248D80B4205D1F3
:104EF00003229043490004300B42FBD00323B24607
:104F00009C4689460600B846F00040440100370040
:104F1000CC68A14207D1DBE0002A00DB0AE1E468AB
:104F2000A14200D1D4E06246636893435A1B0F2A22
:104F3000F2DD012047468046611905436560A0689F
:104F4000E5685646C560A8604046396179611043FE
:104F500008374860CF6030008F60E25000F00AFAF6
:104F60002000083063E70C23002033605FE78021D6
:104F70003F234020984689007AE756464746032259
:104F8000BC68636893439846AB4202D35B1B0F2B0C
:104F90004DDC230043440293614B08201B6810330F
:104FA0005B19019300F050FA5E4903900B688A4642
:104FB000013306D08446019B4242013B63441340C7
:104FC00001933000019900F027FA03008146013374
:104FD00000D1E1E0029B834200D9DBE0019A524B11
:104FE00094461968029A61449B46080019604A4534
:104FF00000D065E14B46039A013A134200D0EAE043
:10500000BB689946634643441A0001231A434B4642
:105010005A60464B1868884200D21960444B1868A1
:10502000884200D219604C46B8E07B6859E70122FB
:10503000290013431143651961603000BD606B6046
:1050400000F098F920000830F1E6DC680230A34255
:1050500000D122E7DAE65A0A042A00D893E0142A9B
:1050600000D919E111005B3189465C32D200082178
:1050700049428C46BA189444624692680B3188467D
:10508000944500D1F0E00100A14660468C4602E064
:105090009268904204D044465168A1439942F7D89F
:1050A0004C46D36860469C467B686146A260E160DE
:1050B0008C60D46015E7142800D87CE0542800D90F
:1050C000F3E06E239846280B80446F30C100CFE692
:1050D00001370831BB0700D01AE7032205E0036857
:1050E0000838013E834200D034E13242F7D14346D2
:1050F0004A465B689343424653604A465200914693
:105100009A4200D939E7002A04D136E74A465200CC
:10511000914604371342F9D03E00F5E670040020B2
:10512000F40A002064040020C40A0020EC0A0020D5
:10513000F00A002001215646E3185A6830000A435D
:105140005A60E368A268D3609A6000F013F9200007
:1051500008306CE62B00E80808334FE660198046FB
:105160000120844605434046656038617861C2602D
:10517000826062460A4342603000E15000F0FAF873
:105180002000083053E69A09110039323831894637
:10519000D2006CE7BC4214D0BC68626803239A4317
:1051A000531BAA4202D30F2B00DD40E7300000F072
:1051B000E1F800203BE65B23984680445C30C10068
:1051C00056E6664B9B461868019B9C465B466044CE
:1051D0001860039B5A1E53461B68013373D04B461D
:1051E00002995B1A59461B180B600723494648462B
:1051F0001940029118423FD00398013384465B1A4C
:105200000199994449440191634411405B1A1A4041
:1052100011003000924600F0FFF8431C7AD04B4654
:10522000C01A0300534401935B461968012051449E
:1052300019604B46019ABB6002435A60BC4200D1E0
:10524000E7E643460F2B42D907220C3B93436268A3
:10525000024005201A436260E218506090600F2BF4
:105260004DD84B465A68D4E64B46991001238B40E3
:1052700079680B437B6018E7019B03994B4413400B
:10528000CB1A1A4011003000924600F0C5F8431CBA
:10529000C5D100239A46C7E7542A1BD81A0B110020
:1052A0006F326E318946D200E1E6AA235B00984254
:1052B0001BD8DD3B9846E80B80447830C100D7E529
:1052C000039B5A1E87E75346494619608DE74B46B4
:1052D00058606BE7AA2149008A4226D8DA0B1100F0
:1052E000783277318946D200C1E61D4B984226D8E4
:1052F0007C239846A80C80447D30C100B8E521008D
:105300003000083100F086F95B461968BB689946A1
:105310005A687EE6019A029B94464A46083B6344DB
:105320009B1A019300239A467EE70D498A420CD8C6
:105330009A0C11007D327C318946D20097E6FE211D
:105340007E237F209846890092E5FE227E219200EE
:1053500089468CE643465B68CFE6C046C40A002017
:105360005405000010B5024800F0C8F810BDC04652
:10537000C00A002010B5024800F0C2F810BDC046B7
:10538000C00A00200022034B1B68983318605A6043
:105390007047C04678080020094B10B51C68094AC0
:1053A000983420686168084BFFF786F801220023D3
:1053B00080185941206061604800400810BDC04617
:1053C000780800202D7F954C2DF4515870B50400BD
:1053D000830716D102680E4B0E4DD31893432B4210
:1053E0000FD142680A4B0430D31893432B4208D1A3
:1053F0004268074B0430D31893432B42F1D000E0AE
:1054000001300378002BFBD100F070F8200070BD54
:10541000FFFEFEFE80808080002370B5064C0500F4
:1054200008002360FCF732FE431C00D070BD2368E7
:10543000002BFBD02B60F9E7B40C0020014B18685F
:105440007047C04678080020802310B55B0108280B
:1054500001D1180010BDFFF7F1FF16230360173BC1
:10546000F7E7C046024670B50A4392072AD11E4D9F
:10547000EE0104C808C9541B9443344017D0D0B27D
:10548000D9B2401A2106014310D190B299B2401A04
:10549000210401430AD110021902000A090A401A24
:1054A0002102014302D1100E190E401A70BD9A421A
:1054B000DFD010BA19BA884201D9012070BD00208E
:1054C000C04370BD02780B7801300131002A09D049
:1054D0009A4207D102780B7801300131002A01D0BD
:1054E0009A42EFD0D01A70BD0101010103000A7881
:1054F00001311A700133002AF9D170477047C04654
:105500007047C04610B583070AD00300032102E0AC
:1055100001330B4205D01A78002AF9D1181A10BDB0
:10552000030019680C4A0D4C8A188A4322420FD195
:105530005968094A04338A188A43224208D15968B3
:10554000054A04338A188A432242F1D000E001332D
:105550001A78002AFBD1E1E7FFFEFEFE8080808002
:10556000F0B5C646060000B508200D00FFF76CFF39
:1055700004003000FFF7F6FE234B210098469B689D
:105580005F6803239F4338001138401B0019FEF762
:105590004DF9451E6543AC4208DC00213000FFF7A1
:1055A0003BFF43469B68DB19984206D03000FFF76B
:1055B000E1FE002080BCB846F0BD30006942FFF734
:1055C0002BFF01300ED0012243467F1B9B681743FF
:1055D0000E4A5F60136830005B1B1360FFF7CAFE62
:1055E0000120E7E700213000FFF716FF43469A68E5
:1055F000831A0F2BDADD064C04492468001B08606F
:1056000001210B435360D1E770040020C40A00203D
:1056100064040020F8B505000C1E50D0FFF7A2FE70
:10562000012321009C460839486862460300032490
:105630009343CF187A68624EA243B468BC426AD0E2
:1056400064467A6004421DD1340008680834091A9F
:105650001B188868A0424FD0CC68C460A060644624
:10566000B8184068204211D19B185648BA68824247
:1056700000D17FE0F868D060826001221A434A605E
:10568000CB5007E0B81840682042EDD062461A437C
:105690004A603B6080229200934211D2DA08580996
:1056A00001238340706803437360D3009B199A6899
:1056B000CB608A609960D1602800FFF75BFEF8BD7F
:1056C0005C0A042C40D89C09200039343830E400AE
:1056D00034192268083C0327944203D143E09268BE
:1056E000944203D05068B8439842F8D8D468CC604C
:1056F0008A60A160D160DFE76446B8184068204244
:1057000058D1B868D218FB68C360986063461343E9
:105710004B608A50D0E79A186346034206D10B6863
:10572000C91A8868D218CB68C360986001231343F4
:105730004B60254BB1601B689342BDD8234B2800BA
:105740001968FFF70DFFB7E7142C07D9542C1AD8A6
:105750001C0B20006F346E30E400B9E720005C348D
:105760005B30E400B4E7012380108340706803439A
:105770007360BCE7D1609160CA608A6001221A43FD
:105780004A60CB5098E7AA225200944205D8DC0B1D
:10579000200078347730E4009AE70D4A944205D827
:1057A0009C0C20007D347C30E40091E7FE247E20B8
:1057B000A4008DE762461A434A603B607CE7C0461E
:1057C000700400207804002068040020F40A0020FF
:1057D00054050000F8B5C04601B40248844601BC37
:1057E000604700BF5101002001B40248844601BC5B
:1057F000604700BF9D01002001B40248844601BCFF
:10580000604700BF9D01002001B40248844601BCEE
:10581000604700BF0901002001B40248844601BC72
:08582000604700BFC100002039
:105828007C20202020202020202020202020202014
:1058380020204368617261637465723A2025632091
:105848007C204D6F72736520636F64652065717588
:105858006976616C656E743A2025732020202020BB
:10586800202020202020202020202020207C0A000A
:105878007C202020202020202020202020202020C4
:105888002020202020202020202020202020202010
:105898002020202020202020202020202020202000
:1058A80020202020202020202020202020202020F0
:1058B8002020202020202020202020202020207C84
:1058C800000000007C2020202020202020202020F4
:1058D8002020202020204368617261637465723A39
:1058E800202563207C204D6F72736520636F64658B
:1058F800206571756976616C656E74206E6F7420B1
:1059080073686F776E202020202020202020202000
:105918002020207C0A0000007C202020202020203D
:10592800202020202020202020202020202020206F
:1059380020596F7520696E707574202573203A2080
:1059480025732020202020202020202020202020F7
:10595800202020202020202020202020202020203F
:105968002020202020207C0A000000006F6E652087
:105978007365636F6E64206861732070617373650B
:105988006421000074776F207365636F6E64732001
:10599800686176652070617373656421000000009A
:1059A8002E5F5F5F5F5F5F5F5F5F5F5F5F5F5F5F30
:1059B8005F5F5F5F5F5F5F5F5F5F5F5F5F5F5F5FEF
:1059C8005F5F5F5F5F5F5F5F5F5F5F5F5F5F5F5FDF
:1059D8005F5F5F5F5F5F5F5F5F5F5F5F5F5F5F5FCF
:1059E8005F5F5F5F5F5F5F5F5F5F5F5F5F5F5F2EF0
:1059F800000000007C2020202020202020202020C3
:105A0800202020202020202020202020202020208E
:105A18002057656C636F6D6520746F204C657665E3
:105A28006C20312020202020202020202020202011
:105A3800202020202020202020202020202020205E
:105A48002020207C000000007C2020202020202016
:105A5800202020202020202020202020202020203E
:105A6800202020202057656C636F6D6520746F209F
:105A78004C6576656C2033202020202020202020B3
:105A8800202020202020202020202020202020200E
:105A9800202020202020207C000000007C202020C6
:105AA80020202020202020202020202020202020EE
:105AB80020202020202020202057656C636F6D65F2
:105AC80020746F204C6576656C20342020202020BF
