:020000041000EA
:1000000000B5324B212058609868022188439860DF
:10001000D860186158612E4B002199600221596106
:100020000121F02299502B49196001219960352056
:1000300000F044F80222904214D00621196600F024
:1000400034F8196E01211966002018661A6600F04E
:100050002CF8196E196E196E052000F02FF8012189
:100060000842F9D1002199601B49196000215960AB
:100070001A491B48016001219960EB211966A021F2
:10008000196600F012F800219960164914480160C1
:100090000121996001BC002800D000471248134993
:1000A000086003C880F30888084703B5996A0420EC
:1000B0000142FBD001200142F8D103BD02B5186610
:1000C0001866FFF7F2FF186E186E02BD00000240BE
:1000D000000000180000070000035F00212200005C
:1000E000F4000018222000A00001001008ED00E03C
:1000F00000000000000000000000000074B24E7A12
:1001000000200420F7010010C3010010C5010010F9
:10011000C1010010C1010010C1010010C101001097
:10012000C1010010C1010010C1010010C701001081
:10013000C1010010C1010010C9010010CB01001065
:10014000CD010010CD010010CD010010CD01001037
:10015000CD010010CD010010CD010010CD01001027
:10016000CD010010CD010010CD010010CD01001017
:10017000CD010010CD010010CD010010CD01001007
:10018000CD010010CD010010CD010010CD010010F7
:10019000CD010010CD010010CD010010CD010010E7
:1001A000CD010010CD010010CD010010CD010010D7
:1001B000CD010010CD010010CD010010CD010010C7
:1001C00000BE00BE00BE00BE00BE00BE00F04BF888
:1001D000103800BEF2EB887114460010384600104B
:1001E0003402001090A31AE700202149086006C8D5
:1001F00081F3088810471F48006800282FD10DA4FC
:100200000ECC002902D000F012F8F9E71A491B4A77
:10021000002000E001C19142FCD1194988471949E9
:1002200088471949884700BEFDE701C901C29A42C3
:10023000FBD3704738460010C00000204002002069
:10024000B84700100000042000000420B847001048
:1002500000100420001004200000000070470B482C
:1002600002F01AFE0047EFF30580C0B270470000AD
:1002700008ED00E0000000D0400200201006002041
:10028000851300101103001075140010575600005C
:1002900006005250ABB36053884500100600525020
:1002A000861C030298450010060052505422A29D5D
:1002B000A045001005005250DE65F468B8470010F4
:1002C000F8B5C04606480749091A8B10C90FC91866
:1002D00010B5491003D0044B002B00D0984710BD37
:1002E000400200204002002000000000054B10B535
:1002F000002B03D00449054800E000BFFFF7E2FFF0
:1003000010BDC04600000000C4050020904200104F
:10031000F0B5C64600B5FE2682B003F0F5FEB60580
:10032000341C8121201CC90503F055FC211C03F05D
:1003300052FC311C051C03F04EFCFE21061C8905F5
:10034000281C03F02EFC011C301C03F030FCFE21A5
:10035000061C8905201C03F027FC4149041C03F0FE
:1003600069FC0028DDD1311C301C03F01DFC03F0BA
:1003700069FC04000D0022000B003A4803F0B8FEAF
:1003800020002900384A394B03F023F80022384B6B
:1003900003F04FF8344A354B03F02DF849004B0871
:1003A000344902000800884603F0A2FE0023324CC4
:1003B0002500009301941C000022200029002F4BEF
:1003C00003F037F822002B0003F033F8009A019B6A
:1003D00006000F0003F02DF8002200900191264B3B
:1003E0003000390002F0F5FF02000B00009801997F
:1003F00003F001F80022009001911F4B200029001A
:1004000002F0F0FF00221E4B04000D0003F05AF82A
:100410000028D1D10098019902000B0002F0E2FF00
:1004200004000D0022000B00164803F061FE2000BE
:1004300029000D4A0D4B02F0CCFF00220C4B02F0BC
:10044000F8FF094A094B02F0D6FF490002004B08A9
:10045000404603F04DFE002002B080BCB846F0BD1F
:100460000050C34790420010EA2E4454FB2109403B
:1004700000005940CC4200100000F03F0000104046
:10048000006AF840E8420010094A10B5944640243A
:10049000830063441A68C0006240803414408022A4
:1004A000520113431C60034B9C466044416010BDE5
:1004B00004C001400040014070B5EFF3108C72B6EB
:1004C0000D4D2B68002BFCD0BFF35F8F0724CB08AA
:1004D000C618C05C01230C40A3401C00044003422A
:1004E00007D118433070BFF35F8F2C608CF31088F6
:1004F00070BD100000F0C0FF2C0100D0024B186846
:100500008007C00F7047C04600C006400021044B62
:10051000044ABFF35F8F02C39342FAD17047C046CB
:10052000000100D0800100D0044A1078431CDBB2E7
:10053000172B00D9102313707047C0467401002098
:1005400001238340002904D0034A1360034A136047
:100550007047034A1360FBE780E200E000E100E03F
:1005600080E100E0024B10309B688000C05870476B
:1005700000ED00E070B50D00EFF3108672B60F4A83
:100580001368002BFCD0BFF35F8F0D4B10309B68BE
:1005900084001B590B4A934203D09D4201D000F0C6
:1005A00083FF074B9B681D51BFF35F8FBFF35F8FC6
:1005B0000022024B1A6086F3108870BD240100D01F
:1005C00000ED00E0CD010010F0B5DE4657464E4686
:1005D0004546E0B50C0083B0EFF3108A72B6604A6E
:1005E0001368002BFCD0BFF35F8F1022914681442B
:1005F0004A465C4B96009B689D595B4B98469D42D2
:1006000005D0A54216D0594FEB1B2F2B14D9554BB3
:100610009B689D51BFF35F8FBFF35F8F0022504BEC
:100620001A608AF3108803B0F0BCBB46B246A946F4
:10063000A046F0BD1D00EAE7012383409B465A46D1
:100640004B4B1B681A4000925A464A4B1A60BFF344
:100650005F8FFFF708FE031E01901DD12A000133B2
:100660009A439068844208D171E04B005B189B006C
:10067000FB189868A04245D01A000621515600295F
:10068000F3DA84426AD0009B002B34D05A463A4BAE
:100690001A60374B1A60BAE7814530D12A0001232E
:1006A0009A4390688442E8D10621515613000029EC
:1006B00040DB4A00501880003C188046A0689860D3
:1006C000E079D87106202056987100282FDBA48885
:1006D000F81A6405241544440019E0240005400D6F
:1006E0002402204398805318244A9B001078FB185A
:1006F00098711170C7E75A461E4B1A6087E700F0E1
:10070000D3FECBE7062159560029D2DA01990029F8
:1007100010D1FF3191711A49918018490A789A7164
:10072000184ADB1B5B415A43120D0A70ABE7BD2030
:100730000002D7E7144A1549D21A083A5002400D70
:1007400001439980124952080A43DA809BE7062147
:10075000515613000029ACDA4546DEE71300D5E711
:10076000240100D000ED00E0CD0100107801002050
:1007700000E100E080E100E080E200E00D06002002
:1007800000BDFFFFAAAA0000B201002000F0FFFF99
:1007900000F8FFFFF8B5012504000543FFF763FDEE
:1007A000EFF3108C72B6214A1368002BFCD0BFF314
:1007B0005F8F1F4E2100B7681E4A1F4B891A49419F
:1007C0004B431B0D59B28300F858A8421CD0062396
:1007D000D3568B421CD01223D3568B4222D01E23D9
:1007E000D3568B4220D02A23D35603208B4210D0DD
:1007F000124B1A781970A271BFF35F8F00220B4B56
:100800001A608CF31088F8BDB2680D48D050EFE73D
:10081000002043001B189B00D218FF239371094B43
:100820009380E5E70120F4E70220F2E7240100D0FD
:1008300000ED00E078010020AAAA00000D060020CB
:10084000CD01001000BDFFFF054B064A1360064AAC
:10085000136053609360D360136153619361704779
:100860008080808000E400E004E400E0024B9C46CD
:1008700061448900016070474000003483680B4880
:1008800010B58446614462441201090159189B184D
:100890005C684A680120944201D802D00020C0B2AE
:1008A00010BD1A680B689A42F9D8F7E7FFFFFF0FEF
:1008B000F8B5574645464E46DE46E0B598460CAB81
:1008C0001C780DAB1B78070091469A460568002CF2
:1008D0005ED1AC7B002C3BD0660029683619033E04
:1008E00089194B78AB73002B00D1EB7300238B700D
:1008F0004B700B702D4BE218BB6812019B184A46D7
:100900001A6042465A600A9A9A600B9ADA6000238B
:100910008B704B700B706B7B9B46002B2BD0220097
:100920005946A8686B6898472A68002816D05B4625
:1009300058465B005B449619033BB070D118D35CFA
:10094000002B00D073705B460C706B735C4513D04A
:10095000F0BCBB46B246A946A046F8BD5B465B006C
:100960005B44033BD3189C709119925D002A00D020
:100970005A705B460B706C734A464346387D00F0F4
:10098000E3F9051E0AD10E9B002BE1D01D70DFE7B5
:10099000660029683619033E8919ABE75346002BD8
:1009A000F1D12100386800F025FCECE7FFFFFF0FD4
:1009B000F0B5DE4657464E4645460023E0B58DB0BD
:1009C0000A936A4B8200D75800239B460B9000F095
:1009D0006BF902000B007868EFF3108972B64D4690
:1009E00001680029FCD0A946BFF35F8F39684E7BB0
:1009F0008C46002E2ED0BC685D49A24671180901B4
:100A00008A4451460868496804000D00A41A9D41B3
:100A1000002D5EDD02000B000B9800F095F900231D
:100A200000229A46002308920993002398467B6887
:100A3000BFF35F8F5A461A6089F310884346002B34
:100A400012D10028C3D10DB0F0BCBB46B246A946B6
:100A5000A046F0BD002300229A4600230892099385
:100A6000002300209846E2E70A9B514618023043D3
:100A7000C047069007917A68EFF3108572B6544626
:100A80001368002BFCD0A246BFF35F8F0699079A2C
:100A9000002A3BDB114302D03B69002B52D13B685B
:100AA000D97B002905D01A68480041185218033A2A
:100AB0005670DE73FA68013E935D013393555B46D1
:100AC0003B617B68BFF35F8F5A461A6085F31088DD
:100AD0007DE7002D01D1002C9CD10021604600F063
:100AE000F1FA53465C681B680893099453469B6867
:100AF00098465346DB689A46FB689B19013B1B7876
:100B00000A931B0203433B61002090E73B69002BE3
:100B1000C5D0089B099C5B1A9441089809991A0052
:100B20002300A14219D899421BD000210491013120
:100B30000391514601914146380002960091FFF71A
:100B4000B7FEBCE700F0B0F8069A079B12184B41BD
:100B5000994202D8E9D19042E7D901225242D317F3
:100B6000E3E708999142E0D9F7E7C046DC050020A9
:100B7000FFFFFF0F10B5124C6368002B04D00A2151
:100B80001048FFF773FE10BD23000F4A10212068A4
:100B900000F098F9032000F07BF8032000F042F900
:100BA00003200A4900F08AF8FFF7BEFC084B9C4678
:100BB000032360442375074B80006060DC60DEE740
:100BC000C0010020F00500207D080010B1090010D0
:100BD00040000034DC050020F0B5D6464F464646BE
:100BE000C0B5EFF305823F23134018001038EFF330
:100BF000108C72B620490A68002AFCD0BFF35F8FC0
:100C00000122170087401D4C1600A24667631C4C4A
:100C10002578A0462C00C4402640224215D05246DA
:100C2000566A184A8400A258964218D34246164B78
:100C3000BD43E3581570BFF35F8F00220A608CF349
:100C40001088002B06D0984704E0BFF35F8F0E603A
:100C50008CF31088E0BCBA46B146A846F0BD0B4AFA
:100C60009B00904643441A681A60BFF35F8F0023CD
:100C70000B608CF31088EDE7280100D000400540A0
:100C80000E060020F405002068050020D03F054036
:100C900010B5034B01001800024AFFF70DFC10BD10
:100CA0000C06002028430010034B596A0A00986A7A
:100CB000596A8A42FAD170470040054070B5040075
:100CC0000D00EFF3108672B61A4A1368002BFCD0A1
:100CD000BFF35F8F002D1BD02000FFF743FC1649A8
:100CE00081420AD02000FFF745FC01212000FFF7D8
:100CF00027FC0123A340114A1360114BA400E550C7
:100D0000BFF35F8F00220B4B1A6086F3108870BD13
:100D10000121A1400A4BA200D5500A4B20001A78AD
:100D20008A4305491A70FFF74FFC00212000FFF7A6
:100D300007FCE5E7280100D0D90B0010386005401A
:100D4000680500200E060020F0B54F46D646464600
:100D5000C0B507002E4C616A0D00A66A616AA942FF
:100D6000FAD18B4208D805D00120E0BCBA46B14682
:100D7000A846F0BDB242F7D9EFF3108A72B6254803
:100D800001680029FCD0BFF35F8F0125BD402249D7
:100D90001F4C8846097889462943C9B28C4641468A
:100DA00060460870391D890065630A511B49B80007
:100DB0004350216A0020294219D0616A0800A66ABE
:100DC000616A8142FAD18B4219D801D1B24216D858
:100DD000CC450BD00E4B1F221D625D6301233A40B0
:100DE00093400F4A136043464A461A700120BFF3EE
:100DF0005F8F0022074B1A608AF31088B5E7002046
:100E0000BFF35F8F0022034B1A608AF31088ACE7B0
:100E100000400540280100D00E060020F405002007
:100E200080E200E0EFF3108C72B60A490B68002BE9
:100E3000FCD0BFF35F8F01238340074A074813624A
:100E400002789A430270BFF35F8F00230B608CF32C
:100E500010887047280100D0004005400E06002091
:100E600070B505000E001400002923D0002A12D00E
:100E700080686B689847296800280ED063001B19AA
:100E80007200033B9219CB18033A9E7088188A5C53
:100E9000002A11D10470300070BD73009B196200EC
:100EA000033B1219CB18033A9C7088188A5C002AFD
:100EB00005D106702000EFE75A700470EBE75A7016
:100EC0000670F7E730B583600023CCB2437301337B
:100ED000047342608373C4730D000068012C06D94B
:100EE000421C0133DBB2137003329C42F9D1FF2163
:100EF00029404B005B18C01800230338437030BDF5
:100F000070B505000C1E07D0630001681B19033B78
:100F1000CB185A78002A01D1200070BD50008018EB
:100F20000338091800204E784870210058702800B6
:100F3000FFF796FF310004002800FFF7E1FF0600ED
:100F4000002C26D00028E7D021003200A8686B686A
:100F50009847296800280ED073009B196200033B54
:100F60001219CB18033A9C7088188A5C002A00D0AA
:100F70005A700670D0E763001B197200033B921988
:100F8000CB18033A9E7088188A5C002A00D05A70E9
:100F900004703400C0E7C046F8B557464E46454693
:100FA000DE464C00E0B5641817000268033C0500FB
:100FB000105D13190E009C46002852D0430098463D
:100FC0001B18033BD31859788A46002919D1002FE2
:100FD0000CD0EC7B002C50D063001B19D318033BC2
:100FE0005E70EE73434619180339531800229A7045
:100FF000002362465370F0BCBB46B246A946A046E9
:10100000F8BD4900514403395218517888460021EF
:10101000517089465970524601002800FFF720FFA1
:1010200043468246002B07D05B0029684344033BBC
:10103000CB185A78002A2CD1514642462800FFF797
:101040000FFF0100002F1AD0A4462A68EF7B9444BA
:10105000002F04D07B00DB19D318033B5E70EE73C6
:1010600010E0002FC4D0E97B002910D04B005B18A2
:10107000D318033B5E70EE73BAE7EE73B6E7A4468F
:101080002A6894440029B3D04B009846AAE7EE732F
:10109000AEE7500080180338091848788346484660
:1010A0004870587041462800FFF7DAFE59468046DE
:1010B0002800FFF725FF414602002800FFF7D0FE79
:1010C0008046B9E7F8B557464E464546DE46E0B598
:1010D000467B02687500AD19033D0F00515D531941
:1010E00004009C46002953D04B0098465B18033BF4
:1010F000D3185878824600281BD1002F0CD0E57BEE
:10110000002D51D06B005B19D318033B5E70E67362
:10111000434658180338131800229A700023624679
:10112000300053706173F0BCBB46B246A946A0467E
:10113000F8BD400050440338121850788046002013
:1011400050708146587052462000FFF789FE434692
:101150008246002B07D05B0021684344033BCB1839
:101160005A78002A2CD1514642462000FFF778FEDB
:101170000100002F1AD0AC462268E77B9444002F70
:1011800004D07B00DB19D318033B5E70E67310E0DC
:10119000002FC3D0C07B002810D043001B18D318E9
:1011A000033B5E70E673B9E7E673B5E7AC462268C9
:1011B00094440028B2D043009846A9E7E673ADE70F
:1011C000500080180338091848788346484648700C
:1011D000587041462000FFF743FE594680462000E4
:1011E000FFF78EFE414602002000FFF739FE8046E1
:1011F000B9E7C04670B5050000292CD0437B8B426F
:101200002ED04C0000686418033C0419A278002A10
:1012100021D053009B18033BC25CC6188A4202D1FE
:101220001BE0002A08D053009B18033BC3185A78D0
:101230008A42F6D162785A70002301222800A370F6
:101240006370FFF7A9FE697B02002800FFF708FE24
:101250006873012000E0002070BD63783370EBE715
:1012600001221900FFF798FEF2E7C04610B504000E
:10127000FFF75AF901002000FFF7F8FAFF23237166
:10128000BFF35F8F10BDC04610B50400FFF74CF9E7
:1012900001002000FFF7EAFAFF23A380BFF35F8F6E
:1012A00010BDC046F8B5040006200D0000F05CFA41
:1012B000002844D02A4B2B49E21853425A4180233C
:1012C000DB039C469205284B62441A60274B1A6048
:1012D00010008B689843FBD1214B254AE3185942F3
:1012E0004B4180215B0049000620995200F03CFAF6
:1012F0002900C00001F02AFEC30921D140270121A5
:10130000260080256162A36200232C36AD0135439F
:101310002B60062000F028FA3900800001F016FE4C
:101320006022E36A53400E321A4080235B0133434C
:101330001A60104B236310232B600D3BA364F8BD90
:101340000D4A934203D900230C4F0D49D8E77F2261
:101350000240013252089F011900BF181300CFE765
:101360000080FCBF00C0004000E0004000F00040F2
:101370000406002001030000FEFF0000C0FF3F0044
:10138000FFFF00002C4B2D4A70B51A602C4A2D4BE4
:101390002D491A6014008B689C43FBD12B4D2C4EB9
:1013A000B54208D2013E761BB60808CD9847230007
:1013B0000134B342F9D100F07DF8264A214B1A607E
:1013C000214A9368DB43DB01DD09002BF9D1402280
:1013D000214B224C224E9A675A671A67DA66B4424A
:1013E00008D223682000002B20D00834FFF74CFFE0
:1013F000B442F6D31B4C1C4EC022B168200002F050
:1014000099FCB460FFF782F8FFF71EFAFFF7B2FB12
:10141000164C174EB44208D2013E361BB60808CC13
:1014200098472B0001359E42F9D170BD0834FFF773
:101430001DFFB442D5D3DDE700E00040BFCDFBFE89
:10144000FE7F3C0000F0004000C000402C02002065
:101450003C020020FFFFFF0100F0014024020020B9
:101460002C0200200000002000ED00E03C020020E3
:101470004002002000BEFDE70FB400B5084883B06D
:1014800002F040FD049B002B07D005A91800019134
:1014900001F0E2FC034802F035FD00BEFDE7C04666
:1014A0004C4300105C43001010B50148FFF7E4FF07
:1014B0006043001010B50C2082B000F0AFF9FFF7C8
:1014C0001DF8002810D0864B86488649864A186049
:1014D00059609860D960186159619861D961186242
:1014E00059625A6202B010BD804CA06700F09EF9AC
:1014F00001227F4B1A60636C012BFCD103227D4BD0
:101500001A607A4A936B012BFCD1013301217A4A8C
:101510007A480093043300F02DF90523784A0093AC
:101520000121784800F026F9774B5A68FF2A02D843
:10153000802252005A6080226E4B694C12011A6060
:101540002169002905D0606901F000FD01300138F2
:10155000FDD1E0226C4B6D4819680A4002600222FE
:101560001968514001320A40042102609A68114210
:10157000FCD08021664A09011160802252005A6025
:10158000644B2361644B5968FF2900D85A600322D9
:101590000121574B1A60604A93681942FCD0E0233E
:1015A000106803405D480360126803234A4002212B
:1015B0001340594A036093681942FCD08021584B6C
:1015C000090119608021574B490051606361564BF6
:1015D0005A68FF2A00D859608022544B12011A60C1
:1015E000E169002905D0606901F0B0FC01300138E3
:1015F000FDD1E0234C4A11680B404D490B6080211E
:101600004C4B090119608021364B49005160E36160
:10161000494B5A68FF2A00D859608022474B120173
:101620001A60216A002905D0606901F08FFC013041
:101630000138FDD1E023404A11680B4040490B605E
:101640008021404B0901196080235B005360802298
:10165000244BD20223623C4B5968914200D25A601B
:1016600080223A4B12011A60616A002905D0606934
:1016700001F06CFC01300138FDD1E023324A1168E1
:101680000B4033490B608021324B090119608023E4
:10169000DB025360144B63622F4B5A68FF2A02D857
:1016A000802252005A6080222C4B12011A60A169DC
:1016B000002905D0606901F049FC01300138FDD1F5
:1016C000E023254A11680B4025490B608021254BFA
:1016D0000901196080235B005360124BA36101E78D
:1016E00040020020006CDC021BB7000000800040BC
:1016F0003CB0004030B00040002F685900800240EC
:10170000008C864700C0024030800040309000408E
:1017100030A00040001BB7003C8000403C900040DF
:101720003CA00040405973075480004054B0004032
:101730005490004054A000406080004060B00040E1
:101740006090004060A000406C8000406CB00040A1
:101750006C9000406CA000404880004048B00040C1
:101760004890004048A00040014B8000C05870479E
:1017700040020020F8B504000C2017001D000E00E8
:1017800001F0E4FB43011B1A9901C91AC9000918A9
:101790008901380001F0DAFB069B29041B03194379
:1017A0002368002B20DB194B194DE3185A42534193
:1017B0008022520194461B03164A63441360164A62
:1017C00013601F00AA689743FBD1C023221D9B0111
:1017D000134321222660A0601A602268002AFCDAE6
:1017E0000822E1601A60F8BD3F2322681340B3422B
:1017F000D9D1A3681B051B0D8342D4D1EE22E36827
:10180000D20213408B42CED1EDE7C0460040FDBF6F
:1018100000C0004000E0004000F000408023024A89
:101820009B000343D362704700800540AA23064A09
:101830001B0113602F230549D360054B19605368C2
:10184000002BFCDA7047C0460040024000B0FA00AE
:10185000006002407047C046F8B557464546DE4630
:101860004E46E0B598460A9B06009A460D9B0F002F
:10187000934615009B0710D10B9B0C9A93420CD2F8
:1018800013005C460B9A9D1A5D44220043460134C6
:1018900039002020B047A542F7D10B9C6319002CDA
:1018A00009D01D0053462A1B013C185D39004346F0
:1018B000B047002CF6D10D9B9B070ED55B46EC1A6A
:1018C0000C9BA34209D999462A004346390020209F
:1018D0000134B0470135A145F6D82800F0BCBB461D
:1018E000B246A946A046F8BDF0B54F464646D64694
:1018F000C0B584B098460EAB1B7894469946129BAF
:101900000D9C109F119E9A0724D4002E6AD1BC42D0
:1019100020D201221A409246202C00D1CBE00C9A12
:10192000551E302201E0202C30D001342A55A74228
:10193000F9D85246002A0DD0B4420BD20C9A551E4B
:101940003022202C02D126E0202C61D001342A55EF
:10195000B442F9D1DA0634D55A0562D4002C5CD1F0
:101960000F9A102A00D191E0022A00D1A1E0302282
:101970000C9C227001244A46002A5CD15A0700D4EC
:101980007DE02B220C9D2A5501341CE05246002A92
:1019900002D0202E3CD92024DA0614D55A0512D4C0
:1019A000202F00D197E0202E3BD120261F2234008B
:1019B0000F9D102D00D181E0022D4CD030250C9FC1
:1019C000BD54202CD7D103930C9B62460093029602
:1019D00043460194FFF740FF04B0E0BCBA46B1466D
:1019E000A846F0BD012215001D40AA461A4227D084
:1019F0004A46002A33D10C321A4230D1BC429BD223
:101A0000202C00D08BE7202EC5D8DA06A4D4DAE744
:101A10002024DA06D7D55A0503D4A74221D0B442F0
:101A20001FD00F9A102A21D0022A10D0202CCAD001
:101A300022000134C2E72D220C9D2A550134C2E751
:101A4000BC4200D386E7202C00D068E7E1E7202CD9
:101A5000B9D02200013462250C9FBD54E6E7013E57
:101A6000CCE7621E012C00D17AE7A1E79A0616D4D2
:101A7000202CA8D078220C9D2A550134D6E71A07CD
:101A8000A1D520220C9D2A5501349CE79A060ED43C
:101A900078220C9C22703022627002246BE7202C8A
:101AA00091D058250C9A121915700134BEE75822AE
:101AB000EFE76222EDE7002AA7D1AAE7023C9D06E4
:101AC00004D478250C9F3D551400B1E758250C9F90
:101AD0003D551400ACE71F226AE7C04610B5002848
:101AE00000D110BD02F0BCF9FBE7C0460B0010B5F9
:101AF000002802D049681B68984710BDF0B55746CA
:101B00004E464546DE46E0B599B082468946904647
:101B10000993229A239B1000190001F0E8FC002889
:101B200000D0C8E0229823990122D54B524201F0FF
:101B3000D9FC002800D0BEE0229823990122D14B85
:101B4000524201F0B9FC002800D0B4E02298239959
:101B50000022002301F0B0FC002800D0E9E1229E21
:101B6000239F8023269ADB001A400D92269A1A4260
:101B700001D1062324933B00334300D0B4E0269BDD
:101B80001B0500D5BFE1002300240A930B9400231A
:101B900004250C93259B0024AB4200D95C1B022337
:101BA000269A1A400D92269A134203D06B426B413B
:101BB0005B421C400C9B002B07D00A9A0B9B300009
:101BC000390001F018FC06000F002298239900222A
:101BD000002301F071FC002803D0802109067B1846
:101BE0001F00269AA84B009601971340099E049364
:101BF000249B03940293424633004946504600F02A
:101C0000A7F90400002D67D02020269A49460240FB
:101C100013005A4253415B42621C18400A9233003F
:101C200022004530D0470C9A6F1ED317D4185C4061
:101C3000D30F9B46002501E0202D13D008AA94461F
:101C40001F23200063440A2101355E1901F07EF94B
:101C50003031317020000A2101F078F926000400AB
:101C6000092EE9D805230693002304930A3303932E
:101C70005B46099E029310AB0A9A009349463300D3
:101C8000504605970195FFF72FFE0D9A0400002A94
:101C900022D04246851A259AAA421DD9B0465746F7
:101CA000160022004346494620200135B84701343A
:101CB000AE42F6D810E0269B42460493259B494647
:101CC0000393249B50460293229B239C00930194F0
:101CD000099B00F03DF90400200019B0F0BCBB46A0
:101CE000B246A946A046F0BD684B78009C46400D20
:101CF000604401F00FFC664A664B01F09AFB664AAD
:101D0000664B01F06FFB664A3B031B0B1A43040052
:101D10000D00644B11003000002201F05AFB624AB2
:101D2000624B01F086FB02000B002000290001F04D
:101D300059FB01F007FC0C9001F0ECFB5C4A5D4B99
:101D400004000D0001F075FB00225B4B01F04AFB23
:101D500001F0F8FB594A8346594B2000290001F055
:101D600068FB040058460D0001F0D4FB554A564B61
:101D700001F05FFB02000B002000290001F029FBAD
:101D800002000B000A900B9101F053FB04000D00C0
:101D90000A980B9902000B0001F024FB00220E9020
:101DA0000F914A4B2000290001F025FB0022484BEF
:101DB00001F018FB02000B002000290001F01BFBC2
:101DC0000022444B01F00EFB02000B002000290012
:101DD00001F011FB0A9A0B9B0D0080210400C9053C
:101DE000002001F0F6FA02000B002000290001F0AB
:101DF000F9FA394C02000B000E980F9901F0FBFA2A
:101E00005C440022264B01F0EDFA2305002201F08C
:101E100010FB04000D0002000B00300039000A9492
:101E20000B9501F049FB00285ED123002A00C6254E
:101E30000C9963318D42AD4126996D4204350905F7
:101E400000D4A7E6134364D030003900234A244B62
:101E500001F040FB002807D0002230003900214B60
:101E600001F02AFB002854D1249B002B00D191E6DD
:101E70000D9B5A1E9341249AD31A24938AE6C04696
:101E8000FFFFEF7FFFFFEFFFFFF7FFFF01FCFFFF0B
:101E9000FB799F501344D33FB3C8608B288AC63F59
:101EA0000000F03F0000F83F61436F63A787D23F17
:101EB00071A379094F930A400000E03F1655B5BB66
:101EC000B16B0240EF39FAFE422EE63F00002C4093
:101ED0000000244000001840FF0300002D431CEBCD
:101EE000E2361A3F80842E410C9B0022013B0C936A
:101EF0002000164B290001F07EFA0A0001000300C1
:101F00000A910B9293E7002300240A930B94002379
:101F10000C93249A0C9B9A4214DDD31A013B249310
:101F20008023269ADB001A430023002526920C9377
:101F300030E6802212069446229B1E00239B6344B7
:101F40001F000EE600232493EAE7C0460000244069
:101F5000F0B54546DE464E465746E0B595B08B4651
:101F6000904699461E9A1F9B0A9019001000209DCA
:101F700001F0BDFA002800D0B0E11E981F9901229F
:101F8000C74B524201F098FA002800D037E11E9862
:101F90001F990122C34B524201F0A4FA002800D03D
:101FA000A7E01E981F990022BF4B01F09BFA002862
:101FB00000D088E01E981F990022BC4B01F07CFAEB
:101FC000002800D07FE01E981F990022002301F016
:101FD00073FA002800D0FAE000230B938023229CA0
:101FE000229ADB001C401A4200D102E1092D00D8E0
:101FF0007EE106A98C462C00172200233021093CE3
:1020000062440133D154EF1A202B00D132E1A342B4
:10201000F7D10022A44B069207931E981F9901F056
:1020200091FA050001F076FA02000B001E981F9944
:1020300001F0CFF9069A079B01F0FBF9089009918E
:1020400001F0A4FA060001F061FA02000B00089802
:10205000099901F0BEF90022954B0890099101F011
:1020600041FA002800D1D2E00136300001F04EFAEA
:10207000069A079B01F02EFA002801D000260135B0
:10208000AA46002F00D098E0280001F043FA020091
:102090000B001E981F9901F09CF9854B0022060049
:1020A0000F0001F009FA0CAB9A46002845D1002236
:1020B000300039007E4B01F015FA00283DD1EB07C6
:1020C0003BD5013539E0229B42460493219B59467A
:1020D00003930A981E9B1F9C0295009301944B4604
:1020E000FFF70CFD15B0F0BCBB46B246A946A046B2
:1020F000F0BD229B5B0767D403226E4B22990192AD
:10210000039121990291009342464B4659460A9801
:10211000FFF7A2FBE6E706AA9446172328006344CC
:102120000A2101341E1900F0E9FE30312800317017
:102130000A2100F0E3FE051E76D0202CEBD103230C
:10214000229A1340012B1DD1219B002B1AD00B9BEF
:10215000002B00D0BBE0229A0C33134200D0B6E033
:10216000219BA34200D887E006AB9C461722302370
:10217000624404E02199013413558C4259D0202C3B
:10218000F8D12024229B01940393219B0293534670
:10219000B9E706AA944617230A21634430000134A4
:1021A0001D1900F0D3FE3031297030000A21013FA3
:1021B00000F0CCFE092E46D90600202CE9D1554668
:1021C0000CAB20249A46B8E704223B4B96E71E9AB4
:1021D0001F9B0020002101F0FCF801230B938023BA
:1021E000229C229ADB001E901F911C401A4200D0B4
:1021F000FCE60022314B0627069207930DE7229B4F
:102200000393219B0293042301932D4B7BE7002230
:1022100008980999264B01F04FF9002800D02FE7C4
:10222000002E4FD101362BE70323229A1340012BB6
:1022300068D0202CA6D00B9B002B1FD02D235246FC
:10224000135501349EE75546202CB9D030223B1956
:10225000002F4BD0172006A9013409180A55202C4D
:10226000AED09C42F6D10CAA92462E2251465C1C5E
:10227000CA5462E72024CCE6202C83D0229B5B0743
:1022800008D4229B1B0700D47CE720235246135519
:10229000013477E72B2352461355013472E7C046C9
:1022A000FFFFEFFFFFFFEF7F65CDCD4165CDCDC1D6
:1022B0000000E03F744300106C43001080842E4106
:1022C0007C430010F30700D4DAE60136D8E6219B00
:1022D000013B2193A34200D946E7AAE7229B03933F
:1022E000219B029303230193084B0CE72300BAE7D9
:1022F000074BEA009B185C681B682F000693079445
:1023000000248AE6219B002B93D020E7784300101D
:1023100020450010F0B5DE4657464E464546E0B52E
:102320009FB01C00289B93460A93CC4ACC4B8A460C
:1023300009901A60002900D14DE1002320789946C8
:10234000002800D14FE1C74B4D460893C64B0D9373
:102350000AE02A006E1C5B46099D5146A8473500DD
:1023600001342078002872D02528F2D11023994614
:10237000083B9846043B00219C4602270134207804
:1023800026000300203BDBB2102B03D8089A9B00E9
:10239000D3589F460300303B092B6ED900272A28CB
:1023A00000D18AE000230B932E2800D176E00300B1
:1023B000683BDBB2122B1BD8AC4C9B00E3589F460A
:1023C000012301341943DAE739430134D7E763467F
:1023D00001341943D3E74B4601341943CFE7434651
:1023E00001341943CBE780235B0070781943013631
:1023F00067280AD824281FD90300253BDBB2422BCB
:102400001AD80D9A9B00D3589F460300693BDBB254
:102410000F2B11D801249C40954AA44690461440A5
:102420000C9462464446224200D025E20A2B00D199
:1024300001E1072B00D1D8E0099C2A005B465146F8
:10244000A04770786F1C741C3D0000288CD1A946F1
:102450002C00CB4503D801235B425B4499465B4685
:102460004A4651460020099DA84720001FB0F0BCF5
:10247000BB46B246A946A046F0BD0027BB00DF1907
:1024800001367F003F183078303F0300303B092B86
:10249000F4D900230B932E2800D088E7802370788E
:1024A000DB0019430300303B741C092B00D82CE1DE
:1024B0002A2800D138E1260079E70A9B80CB002F3B
:1024C00003DB60780A93661C6CE702226078114394
:1024D0007F420A93661C65E7672800D1C8E1472858
:1024E00000D104E2452800D104E207200A9B0491B0
:1024F0000733834319000B9A039702920CC909987A
:10250000009201930A912A005B465146FFF7F6FAC2
:10251000741C050025E770786C2800D10DE280233B
:102520005B001943013663E780239B0070781943F1
:1025300001365DE77078682800D1F9E18023013623
:10254000194355E7462800D18FE107200A9B0491E3
:102550000733834319000B9A039702920CC9099819
:10256000009201930A912A005B465146FFF7F0FC66
:10257000741C0500F5E62A00099C5B46514625209F
:102580006F1CA0473D00741CEBE6890700D4DEE118
:102590000A9B2A0098466B1C9946434601CB51463C
:1025A0009846099C5B46C0B2A047ED19012F00D8A0
:1025B00093E24C46B1465646099F22005B460134E1
:1025C00031002020B847AC42F7D1B24643464E46D0
:1025D0000A93741CC5E6274B20780993002399467B
:1025E000002800D0AFE6002433E70A9B1A0008CA8F
:1025F0009046002B00D1A7E0212008430EA98C466D
:102600001F2262440F27AC46814615000C9C02E055
:10261000202C0CD013003800184001003731092855
:1026200000D80739013429551A090F2BF0D865460F
:1026300048460C9494E00A9B1A0008CA12920B9A1E
:10264000002A7BD102241A786442002A1DD001346A
:1026500018199C461C00030010E0C046152300100A
:10266000C00500208443001014440010C84300102B
:1026700041900000551800109C4203D0607801344E
:102680000028F9D16346E01A0C908020C0008446EF
:10269000084080466046014204D00B980C9C84425E
:1026A00000D90C900220844608400A9060460842F7
:1026B00000D189E1101E00D170E14246002A00D10C
:1026C0001BE10B9A5B1B9046A84444462A00B8467F
:1026D00099465746B246099E09E05B463900551CAB
:1026E000B0474B46585D002800D12CE12A009442A7
:1026F000F3D156462500BA4647460A9B002B00D028
:102700004CE1129B741C0A932BE6002293009B1849
:102710005B0001341A182078303A0300303B092B53
:10272000F4D926000B9242E60A9B023604CBD04332
:10273000C01702400B9230780A9338E61A78002AC4
:10274000A3D00B98441E82E71023080080279843EB
:10275000113318430B00FF003B40394200D14DE7D5
:10276000082305930B9B2A00049310230393002353
:1027700002930C9B0690019316AB009351465B4667
:102780000998FFF7B1F843460500741C0A93E8E581
:10279000622800D1A6E1582800D1B1E180230A00C7
:1027A000DB001A409046194200D189E11123994378
:1027B0008C46802362469B001A40100062461A42F3
:1027C00000D023E1802364465B001C401A4200D005
:1027D00032E263465B0600D56BE163460A991B064D
:1027E00000D4DBE208C91BB2DA179818504080B257
:1027F0000A91DA0F0C92002B00D118E280460EAA43
:1028000091461F234B441395E14645461297B04627
:102810001E0001E0202C0FD028000A2100F096FBBA
:10282000013437193031397028000A2100F08EFB4D
:102830002F000500092FEDD84646CC46129F139D68
:10284000634606930B9B059704930A2303930C9B03
:10285000029316AB2A000194009351465B460998F7
:10286000FFF742F8741C05007BE5202319436CE652
:1028700080231B01194338E6782800D07CE18023AF
:102880000A00DB001A409146194200D1A5E20D234F
:102890009943080003330C93802302009B001A40E5
:1028A0009046184200D078E1802304005B001C4071
:1028B000184200D007E2430600D453E2FF210A9BEE
:1028C00004CB0A4090460A934346002B00D026E1F1
:1028D000103398434B46002B00D120E100240B9B82
:1028E000069004930C9B059703930023B0E7802385
:1028F0001B01194320231943F7E55B1B99460C9BE9
:10290000099C98465B46B3465646BA461F002A00C5
:102910003B003100A0474B460135585D0028F6D1F9
:1029200043460C933B005746B2465E469B46E4E660
:10293000C023B078194302365AE5C0239B00B07813
:102940001943023654E55646BA464746D5E6012FA6
:1029500000D832E26B1E9846B8442C00A946454682
:10296000B8465746B246099E22005B4601343900FC
:102970002020B047AC42F7D10A9B564601CBBA465D
:102980004746984622005B46099C5146C0B2A04784
:102990004D464346ED190A93741CE2E40C9BA8468D
:1029A0009F4200D8ADE64446B04656467D19099F81
:1029B000ED1A22005B46013431002020B847AC42BA
:1029C000F7D1B24646469CE60C98874200D8F0E123
:1029D000424698467919B9465746B246099E0C1A9E
:1029E0000C922A005B46013539002020B047A542F1
:1029F000F7D15646BA464F4643460C9A90467A1C43
:102A00000C921A78101E00D057E67AE608220721A9
:102A100091460A9B07338B4399444A460ACB0C00E4
:102A20000A921C43DA0F002C4ED0D81704001090E5
:102A30004C4011900E94109811990C005C400F942A
:102A40000E9B0F9C1B1A8C410E930F940EA9884667
:102A50001F23002443441297B046270013951E00FD
:102A60000E9C0F9DE1460C9201E0202F10D020001B
:102A700029000A22002300F0ABFA013730322B0084
:102A8000F2550D0022000400002BEED1092AECD8EB
:102A90004646CC460E940F950C9A3C00139D129F0F
:102AA000634606930B9B059704930A2302920393B4
:102AB000CFE6FF230A9904C9134018000A9198E64B
:102AC000102399438C4674E643460024002BE7D13B
:102AD000002300240E930F94B8E743464D460A9313
:102AE000741C3EE480230A00DB001A409146194220
:102AF00000D140E10D2399430B3B08000C93CBE63A
:102B000080230A00DB001A409146194200D162E19D
:102B10000D2320209943033308430C93BCE6612323
:102B2000810600D541230EA91F228C46DBB26244E8
:102B30000A3B13971495814645460C9FB046129365
:102B4000160008E03033DBB201343355BD420ED3FA
:102B5000202C0CD005003900280000F0F7F9CBB28A
:102B60000929EFD9129A94466344DBB2ECE7464652
:102B70004846139F149DB2E66F2800D03CE10C2319
:102B80000800984380230A00DB001A40914619424E
:102B900000D02AE108230C937EE60A99FA3BFF3B1A
:102BA0000731994301339C468C4463464A680A9333
:102BB0000B6890469C461343191E06D14B461031B4
:102BC00000248843002B00D089E66121830600D5CC
:102BD00041210EAA91461F234B449946C9B20C9B32
:102BE0000A3913971495159645464E4600246746B4
:102BF0009846814612910CE03032D2B20023013463
:102C00003255AB4200D1BCE0202C00D1BCE0070023
:102C10000D00424600233800290000F0D9F9D2B255
:102C2000092AE9D9129B9C466244D2B2E6E74346A0
:102C3000002B00D004E6E2E50A9C08CCDA0F1392E0
:102C4000002B00D1A5E0D9175B184B4098460EAA7F
:102C500091461F234B440C95A14645461296E046EB
:102C600006001C000A9701E0202E0FD028000A2140
:102C700000F06CF90136A7193031397028000A21AB
:102C800000F064F92F000500092FEDD8C4464C462A
:102C900030000A9F0C9D129E634606930B9B2A00F0
:102CA00004930A230393139B0190029316AB0093A2
:102CB00051465B4609980597FEF716FE0A940500F3
:102CC000741CFFF74EFB0A9B10CB1493002C04D10D
:102CD000102398434B46002B2CD16123810600D54D
:102CE00041230EA91F228C46DBB262440A3B129795
:102CF0001395814645460C9FB0460A93160008E09E
:102D00003033DBB201357355BC420ED3202D0CD0CD
:102D100004003900200000F019F9CBB20929EFD9DD
:102D20000A9A94466344DBB2ECE748464646129F53
:102D3000A846139D0B9B2A0004930C9B06900393BB
:102D4000002302934346019316AB009351465B4622
:102D500009980597FEF7C8FD149B05000A93741C9B
:102D6000FFF7FFFA03061FD50A9B02CB09040A0CE2
:102D700090460A93A8E50C2399430A3B08000C935C
:102D80008AE5B84500D83FE74846139F149D159E35
:102D9000A5E54346002B00D07EE758E708C9DA17BF
:102DA000981850400A9124E50A9B04CB90460A9358
:102DB0008AE5010001310C9124E60A9F6C1C01CFC9
:102DC0002A005B46099D5146C0B2A84725000A97D4
:102DD000741CFFF7C6FA202319430C2399430023E0
:102DE0009946103308000C9356E508238C460C9343
:102DF0000D23604698434FE510230A009A439446FA
:102E0000692808D180230A00DB001A409046194245
:102E100000D1CEE4CAE41C230800984380230A00B2
:102E2000DB001A409146194202D10A230C9333E584
:102E30000A230C93DCE7C04600B585B0039101215D
:102E400002900093034813004A4202A9FFF762FA76
:102E500005B000BDED1A001010B5094A0300146852
:102E600084B0002C08D0012200910648524203A9E8
:102E7000A047012004B010BD01F044F80020F9E79C
:102E8000C0050020DD1A001001480421014B18473D
:102E9000F0010020B92E0010142310B5010018888D
:102EA00004331B88984710BD162310B501001888FD
:102EB00002331B88984710BDF8B54746CE4680B50B
:102EC0000F1E19D01423994604330400002501264F
:102ED00098464B461888434621681B88984701C48A
:102EE000431E9841013540420640AF42F1D13000C7
:102EF000C0BCB946B046F8BD0126F8E7124A936F48
:102F00009B0815D29066D166002905D0FFE7FFE740
:102F1000FFE7516F106F704704B580210906C21793
:102F20005140002800D0C84301F09AF9002104BDA7
:102F3000F0B5146E556E576F166FFFF7E3FF14660A
:102F4000556657671667F0BD000000D0114A936FB1
:102F50009B0813D210665166002905D0FFE7FFE7F2
:102F6000FFE7516F106F704704B5002801D00020B3
:102F7000C04301F075F9002104BDC046F0B5146EE0
:102F8000556E576F166FFFF7E5FF14665566576766
:102F90001667F0BD000000D094464E4A926F92082A
:102FA000624601D230E0C046F0B54A4EB56F6D08BA
:102FB000FCD3346E756E776F366F00F025F894464B
:102FC000444A14665566576716676246F0BDC046A8
:102FD0009446404A926F9208624601D258E0C04639
:102FE000F0B53C4EB56F6D08FCD3346E756E776FDF
:102FF000366F00F04DF89446364A146655665767AA
:1030000016676246F0BDC046002B24DB11D00029B4
:103010003EDA00B5C943404200D1013100F038F832
:10302000C943404200D10131DB43524200D1013358
:1030300000BD002AEBD1002801D1002905D00020D5
:10304000C90FC90701D1C043410800B501F000F91B
:103050000022002300BD00B500290ADBDB435242F9
:1030600000D1013300F014F8C943404200D10131CE
:1030700000BDC943404200D10131DB43524200D17F
:10308000013300F005F8DB43524200D1013300BDAB
:10309000002923D1002B18D1002A0CD0BC460D4F9B
:1030A00038667A6600210023FFE7FFE7FFE77A6FC3
:1030B000386F67467047002801D00748010000B507
:1030C00001F0C6F80022002300BD02000B00002022
:1030D00000217047000000D0FFFFFFFF002B00D051
:1030E000BFE0130C28D1002AE7D080B4114F396615
:1030F0007A66FFE7FFE730B4040C7B6F396F1B047F
:1031000023433B667A66FFE7FFE7FFE7C04684B2EA
:103110007B6F3D6F1B0423433B667A66FFE7FFE747
:10312000C04600232C042D0C7A6F386F00196941BA
:10313000B0BC7047000000D0F0B594460025140ED6
:1031400001D112020835140F01D112010435940F78
:1031500001D192000235D40F01D152000135D40BB8
:103160000134254F7C66254C3C660E0C93B2FFE77C
:10317000FFE7FFE73C6F6643360C7703BE467343B9
:10318000DF0B5B04C01AB941130C7343DB18C91A77
:10319000CE086643360CB64493B273431F0F1B012F
:1031A000C01AB941130C73431F0B1B05C01AB94158
:1031B000860D8F023E436643360C092D24DB520AEE
:1031C0007243801A7703460A6643360C16235B1B4C
:1031D000DE40DF40BF1964466643821B70460435FB
:1031E00006330100D940A840C01900D30131A242E2
:1031F00006D20023F0BD0000000000D0FFFFFFFF5B
:10320000121B0130F3D3F1E709277F1BFE40644610
:10321000A2B27243801A00D20139220C7243130CFD
:103220001204821A99410B007046043513370100CD
:10323000F940A840801900D30131002B02D1A242ED
:103240000AD2F0BD013000D30131121BFAD2013B8A
:10325000F8D1A24200D2F0BD013000D30131121BDF
:10326000F7E7F0B51C0C00D080E00CB400251C0A78
:1032700004D11B02160E3343120208351C0B04D175
:103280001B01160F3343120104359C0B04D19B0024
:10329000960F334392000235DC0B02D192185B414A
:1032A00001351C00971864410134464F7C66464C3A
:1032B0003C660E0CFFE7FFE7FFE7C0463C6F664346
:1032C000360C7703BE4697B27743C01B00D2013954
:1032D000C01B00D201399FB27743C91BC91B170C11
:1032E00077437E04FF0B801BB941CE086643360C42
:1032F0000C2D33DBB644120B1F053A431B0B97B260
:103300007743C01B00D201399FB27743C91B170C0A
:1033100077433E043F0C801BB941860D8F023E432C
:10332000664329277F1BFE400C3D7746AF40BF19FF
:1033300030BCA2B2ABB272437343801A9941220CE3
:103340007243130C1204801A994102000B000137DA
:10335000001BA941F9D2781E0021F0BD0C277F1B6C
:10336000FE4077467F0BAF40FF19E0E700245D1C6D
:1033700007D0144F7D663966FFE7FFE7FFE7FFE7F9
:103380003C6F95B29EB265436643401BB141150C3C
:103390001E0C6543664336042F0C3E432D04401B30
:1033A000B141994204D202000B0020000021F0BD7F
:1033B00001D19042F7D3801A994101349942F2D356
:1033C000F6E70000000000D0FFFFFFFF484041404B
:1033D000484018B41B4B5B68FC46019308BD04DFF2
:1033E0006F36001018B4174B1B68FC46019308BDDC
:1033F00000DF793600109446134A926F920809D282
:10340000624618B40F4BDB68FC46019308BD0CDF25
:10341000313900100C4AF0B5146E556E576F166FA7
:103420006246FFF7EEFF084A14665566576716674F
:10343000F0BD18B4034B9B68FC46019308BD08DF40
:10344000D537001068030020000000D0FFB55040C1
:103450004240504059404B40594000E0FFB5154FA5
:103460004C00640D03D0BC4204D10C0314D80020DE
:10347000090D09055C00640D03D0BC4204D11C0396
:103480000AD800221B0D1B0501264B4009D44B40D6
:1034900003D58B4200D18242FFBD9942FCD19042BC
:1034A000FFBD0B43DB1803431343F5D0C943491851
:1034B000FFBD0000FF07000000B5FFF7CFFF804110
:1034C00000BDC04600B5FFF7C9FF01D9002000BD0F
:1034D000012000BD00B5FFF7B9FF01D9002000BDF4
:1034E000012000BD00B5FFF7B1FF804100BD012004
:1034F00040054A00121804D85A00121801D80020BA
:10350000704701207047002070470000002100280C
:1035100005D17047C1174840401AFAD0C90713B502
:10352000064B1B6898470CBC441CA2401005120BAC
:103530000349091B09051943114310BDEC0500207F
:103540001F04000010B54C00620D8023D218DB0070
:10355000D21A5B057E2A10DD9E3A13DACC170903D6
:10356000490819435242D140640001341532202ADF
:1035700005DAD0400843604310BD002010BD084666
:10358000604310BDC80FC018013810BD18B4044BFB
:103590005B6AFC46019308BD24DFE13A001000009D
:1035A00068030020132370B51D78012D15D010DDA0
:1035B0001D48FFF779FC1D4C01008022200000F01F
:1035C000B9FB022D2DD01A48FFF766FC194B186085
:1035D00070BD194B154CA364F5E7174B134C2360D2
:1035E0006360A360E36023616361A361E3612362BD
:1035F0006362A362E36223636363A363E36323649D
:103600006364A364E36423656365A365E36523667C
:103610006366A366E36623676367A367E367A364E0
:10362000D1E7054BA364CEE75344000068030020B4
:103630004C330000EC0500203D36001007B5604615
:1036400001880A0A0230DF2AFAD1C9B2820804D3FB
:10365000028840880004104300E00068014A50508E
:10366000039007BD680300200FB403BC0CBCF0B589
:103670000124E407634000E0F0B50C0DCF0F661E97
:103680003605891B640503D3C943404200D3013189
:10369000640D03D0661CF60A07D0E41B00207F00EF
:1036A000791C89078912803C24031D0DDF0F6E1ED3
:1036B00036059B1B6D0503D3DB43524200D3013318
:1036C0006D0D03D06E1CF60A07D0ED1B00227F00A3
:1036D0007B1C9B079B12803D2D032F1B661B58D420
:1036E000A446202E46DA20371400BC401D00BD4001
:1036F000F24033412A4380185941CB0F05D0C943CA
:10370000C043002264425041514162464D0D28D1D0
:103710000D0D07D100281FD0241940414941013A1D
:103720000D0DF9D0640006D3013000D30131002C17
:1037300001D140084000013A0BD4941CE40A04D1A2
:1037400012051144DB071944F0BDD907204B19437A
:1037500000E0D9070020F0BD0029DDD1002CDBD12D
:10376000F0BD0132C6074008CD0728434908002EA6
:10377000E1D0D9E73C2E29DA203E40371400BC4086
:1037800000D00124F24014431A00BB401C43D3175D
:10379000ACE7AC46202F08DA20360400B4400D0018
:1037A000B540F84039412843A5E73C2F0CDA203FCB
:1037B00040360400B44000D00124F840044308001F
:1037C000B1400C43C117EAE710001900002494E748
:1037D0000000F07FF0B50C0D661E3605891BE60A69
:1037E0006405640D02D0651CED0A04D0002001219F
:1037F0000905803C2403A4461C0D671E3F05DB1B06
:10380000E70A6405640D02D0651CED0A04D00022AD
:1038100001231B05803C24037740644497B484B2A1
:1038200096B27443070C7E43150C6F4380B2684315
:10383000361802D3012000043F183004350C00195B
:103840007D41844688B29AB250430C0C62431F0CEF
:103850007C438EB27E43921902D301263604A4190A
:103860001604170C3618674101BC81B29AB2514355
:10387000040C62431B0C5C4380B25843121802D301
:103880000120000424181004130C401863412D1863
:103890005E410020474106BC88B293B258430C0CED
:1038A0006343120C544389B251435B1802D3012184
:1038B0000904641819041A0C091862416D1856415C
:1038C0000020474118BCF902720D1143F0026A0D45
:1038D0001043ED020A0D03D16D1940414941013BEE
:1038E000124E9B1B7600B3420ED26D0007D30130FF
:1038F000002671416646354301D1400840001B0552
:10390000C918E4072144F0BD0BDA013306D10130B8
:1039100004D101314F0D01D04908F2E7E107002041
:10392000F0BD013631050020EBE70000FF03000089
:10393000F0B51C0D671E3F05DB1BE70A6405640D2F
:1039400002D0661CF60A04D0002201231B05803C2D
:103950002403D0252D060026F6432E661E096E662A
:10396000CE0FF619B44649004F0D02D07E1CF60A60
:1039700003D000200021403F3F033E1BB600B4446B
:10398000013F7F05C91B49082E6F013676089C024E
:10399000950D25437543ED137543AD1301356D103A
:1039A000F603761B0CB4CC02450D2C43A2B2B3B285
:1039B0005A43270C7B43350C6F43A4B26C431B194D
:1039C00002D3012424043F191C041D0CA4187D41BA
:1039D00024196D41009A91B2ACB26143170C7C433B
:1039E0002B0C5F4392B25A43A41802D30122120453
:1039F000BF182204230C52187B41019C6C431B19F5
:103A0000520ED9010A434401A01A81B2B2B2514305
:103A100003145A43360C734387B27743D617D2192F
:103A200000277E4136049B191704160C7F185E414F
:103A30007316ED18F301002680337541A90F06D1E6
:103A40006400690AE8055B0A184309D22FE00422E2
:103A5000944480337541A90AA8059B0A184326D3CC
:103A6000404149412404009A019B0D005543641BC9
:103A70004343E41A95B286B27543170C7E43030C98
:103A80005F4392B25A43B61802D301221204BF1800
:103A90003204330C52197B4152429C41002C02D417
:103AA0000022013051414008CA071043490802B0C2
:103AB0006246D7079210084BD218084B9A4203D29D
:103AC00012058918C919F0BD0020002A01DC39004F
:103AD000F0BD01331905F5E7FD030000FE07000006
:103AE000002200B5203200F004F8080000BD0000FC
:103AF00000220B150AD410B5944600F031F81414C6
:103B0000013400DA0021CB17144C2047002000219B
:103B100070476244343A0CD40C2A07DA040091400E
:103B2000904052422032D440214310BDD843D94363
:103B300010BD203207D40C4694405242203211412D
:103B4000D040204310BD0800C917203203D4524290
:103B50002032104110BD1800190010BD133B001099
:103B60000A0DCC0F531E1B05C91A520503D3C943B6
:103B7000404200D30131520D03D0531CDB0A07D061
:103B8000121B00206400611C89078912803A12030D
:103B9000014BD21A70470000FF030000484041402B
:103BA00048400E4B5B6818470C4B1B6818470C4A83
:103BB000936F9B0802D2094BDB681847F0B5146E6F
:103BC000556E576F166FFFF7F6FF054A1466556678
:103BD00057671667F0BD014B9B68184768040020C3
:103BE000000000D007B548404140484001E0C046D1
:103BF00007B54200120E03D0FF2A03D1420218D8A3
:103C0000C00DC0054A00120E03D0FF2A03D14A029C
:103C10000FD8C90DC9050122414005D4414001D545
:103C2000814207BD884207BD0143491801D0C04306
:103C3000001807BD00B5FFF7DBFF01D9002000BD6C
:103C4000012000BD034BDB6FFC4618477CDFE93CDD
:103C50000010000068040020132310B512481C78DF
:103C6000FFF722F90100012C0AD003DD80220F4862
:103C700000F060F80E48FFF70FF90E4B186010BD0A
:103C80000A4C5422200000F055F80B4B6365A365E5
:103C9000E36523666366A366E36623676367A367DA
:103CA000E3672362E361E5E7534600006804002010
:103CB0004C330000EC050020BD3C001007B5604609
:103CC00001880A0A0230DF2AFAD1C9B2820804D375
:103CD000028840880004104300E00068014A505008
:103CE000039007BD68040020C30FDB0741000A0EE4
:103CF00007D0FF2A08D00909054A89181943400747
:103D000070471900002070470249C918FAE70000FF
:103D1000000000380000F07F01480421014B1847E3
:103D200000020020B92E0010014B1B68184700004C
:103D300000020020014B5B681847000000020020D1
:103D4000F0B546464F46D646C0B5437C80460E0089
:103D50001700002B4BD0002A32DD274B01259A4655
:103D60004B1E00240020994607E0335D0A2B2CD01F
:103D70002B0001340135BB4213DA002CF5D1337826
:103D80000A2BF5D143461B7C002BF1D1434650460C
:103D900002211B68984728002B0001340135BB42E3
:103DA000EBDB874204DD4346391A1B68301898471D
:103DB000F619013E33780D3B5A4253414246137483
:103DC000E0BCBA46B146A846F0BD4B461B5D0D2B84
:103DD000CED0A042DADA4346211A1B683018984741
:103DE0004346504602211B6898472800D4E70368E1
:103DF000110030009847E3E7D0450010F0B5C64603
:103E00000B6806000C0000B5802B06D05A1C2260FF
:103E1000E418267180BCB846F0BD0F4B1D68002D1C
:103E200016D00B1D98460D4F02E0ED68002D0FD007
:103E30002B68002BF9D03B68002B01D0AB42F4D1AA
:103E4000280041462268FFF77BFFED68002DEFD187
:103E500001220023DBE7C046B8050020BC05002096
:103E6000F0B5CE46474680B583B06B46DE1CD02306
:103E700030701B061C68204B804601A9180099462B
:103E800000F0F6F9071E20D01C4B1C68002C29D02E
:103E90001B4D02E0E468002C0FD02368002BF9D002
:103EA0002B68002B01D0A342F4D120000122310065
:103EB000FFF746FFE468002CEFD1002F12D14046F7
:103EC00003B0C0BCB946B046F0BD019B64B29C4291
:103ED0000CD0484600F0D4F9084B1C68002C01D0E7
:103EE0000127D5E7484600F0ABF9E8E7034B1C682B
:103EF000002CCDD1E3E7C04624020020B805002005
:103F0000BC050020F0B5DE4645464E465746E0B5B6
:103F100083B0060000F062F9D0231B061C68304B0A
:103F2000050001A918009B4600F0A2F98046002870
:103F30003DD02C4B1C689A46002C47D00A232A4FB0
:103F4000994602E0E468002C17D02368002BF9D0D2
:103F50003B68002B01D0A342F4D120002A0031009D
:103F6000FFF7EEFE6B464A4620001A7101A90122B6
:103F7000FFF7E6FEE468002CE7D14346002B25D18D
:103F800053461C68002C06D06368002B0BD0984762
:103F9000E468002CF8D1280003B0F0BCBB46B24660
:103FA000A946A046F0BDE468002CEDD1F3E7019BE3
:103FB00064B29C420ED0584600F062F9094B1C686E
:103FC0009A46002C02D001239846B7E7584600F0E5
:103FD00037F9D5E7034B1C689A46002CAED1DAE7D7
:103FE00024020020B8050020BC0500200A4A1368FE
:103FF000002B05D10CE01A00DB680C32002B07D037
:104000009842F8D1002902D1C3681360C16070479B
:104010000029FCD01060FAE7B8050020F0B547464B
:10402000CE46D02380B51B061F682D4BA3B00400DD
:104030000D00180001A9984600F01AF9061E06D1D5
:10404000019B7FB29F4203D0404600F019F9012640
:104050008422002101A8FFF767FE2B0022002148DF
:1040600001A9FEF7E9FE019B0700002B14D11E4BAE
:104070001C68002C06D06368002B0BD09847E468BE
:10408000002CF8D1002E25D1380023B0C0BCB94691
:10409000B046F0BDE468ECE7134B1D689946002D6F
:1040A0001CD0124C02E0ED68002D0FD02B68002BC5
:1040B000F9D02368002B01D0AB42F4D12800019A3B
:1040C00002A9FFF73DFEED68002DEFD14B460195AB
:1040D0001C68CEE7404600F0B3F8D5E70195D1E77C
:1040E00024020020FD3D0010B8050020BC05002082
:1040F0000FB400B583B004A901C90191FFF78EFF89
:1041000003B008BC04B0184710B500F043F810BD68
:10411000F0B5002915DD0E4B0D271A680D4B0E4C1E
:10412000D3185D426B41451820215B001E5F047867
:10413000A64207D093691942FCD101301460A8420D
:10414000F5D1F0BD93691942FCD11760F2E7C04682
:10415000080600200080FCBF0406002030B50500E2
:10416000002912DD00201024094B013D1A689369D3
:104170001C4208D1013093691C42FCD113682B54B6
:104180008142F4D130BD0028FCD103204042F9E740
:1041900008060020E12110B50B4B0C481B780C4B96
:1041A00049021B780B4B1860FDF77CF802210020B8
:1041B000FCF76AF902210120FCF766F901210648A3
:1041C000FFF714FF10BDC046344600100040034006
:1041D00030460010080600201002002010B58307AA
:1041E0000AD00300032102E001330B4205D01A7804
:1041F000002AF9D1181A10BD030019680C4A0D4C99
:104200008A188A4322420FD15968094A04338A180E
:104210008A43224208D15968054A04338A188A43DE
:104220002242F1D000E001331A78002AFBD1E1E705
:10423000FFFEFEFE80808080F8B5C04600000000D2
:1042400001B40248844601BC604700BF4901002018
:1042500001B40248844601BC604700BF71010020E0
:1042600001B40248844601BC604700BF71010020D0
:1042700001B40248844601BC604700BF0901002028
:1042800001B40248844601BC604700BFC100002061
:10429000457374696D617465206F6620504920759F
:1042A00073696E672073696E676C652D70726563E4
:1042B0006973696F6E20726570726573656E746183
:1042C00074696F6E3A202566200A00004170707292
:1042D0006F78696D6174696F6E206572726F723A82
:1042E00020256C6625250A000A457374696D617482
:1042F00065206F66205049207573696E6720646F72
:1043000075626C652D707265636973696F6E20727A
:104310006570726573656E746174696F6E3A20259D
:104320006C66200A00000000486172647761726563
:1043300020616C61726D20256420616C726561641E
:104340007920636C61696D65640000000A2A2A2A7D
:104350002050414E4943202A2A2A0A000A00000020
:10436000486172642061737365727400666E692BB4
:1043700000000000666E69006E616E00666E692D59
:1043800000000000DE23001094230010942300108E
:10439000D6230010942300109423001094230010BF
:1043A00094230010942300109423001094230010F1
:1043B000CE23001094230010C82300109423001073
:1043C00094230010C023001034250010F0230010A7
:1043D00028250010F023001016250010F0230010EF
:1043E000F0230010F0230010F0230010F023001041
:1043F000F0230010F0230010E6230010F02300103B
:10440000F0230010F0230010F0230010F023001020
:10441000E623001076250010382400103824001000
:1044200038240010382400103824001038240010DC
:1044300038240010382400103824001038240010CC
:1044400038240010382400103824001038240010BC
:1044500038240010382400103824001038240010AC
:10446000382400103824001038240010382400109C
:10447000382400103824001038240010382400108C
:10448000382400103824001038240010382400107C
:1044900038240010D824001044250010D82400101F
:1044A000382400103824001038240010382400105C
:1044B000382400103824001038240010382400104C
:1044C000382400103824001038240010382400103C
:1044D000382400103824001038240010382400102C
:1044E00090270010382400103824001038240010C1
:1044F000382400103824001038240010382400100C
:104500003824001038240010902700108A2500104D
:1045100090270010D824001044250010D824001043
:10452000000000000000F03F0000000000002440F8
:1045300000000000000059400000000000408F40D3
:10454000000000000088C34000000000006AF8403E
:104550000000000080842E4100000000D012634162
:104560000000000084D797410000000065CDCD41D8
:1045700052656C6561736500626F6F74325F77328C
:104580003571303830000000312E342E30000000FC
:104590007069636F000000006C61623032000000DF
:1045A00046656220313320323032330006005250EB
:1045B000D3F075427045001006005250E182887FAA
:1045C0007845001006005250BBFF3CB690450010E5
:1045D0000D0A00005541525420737464696E000046
:1045E00055415254207374646F7574005541525490
:1045F00020737464696E202F207374646F75740067
:104600000600525053B4F4A1EC450010080052507B
:044610009200000014
:10461400AC450010B845001090020010C4450010CD
:104624009C020010A8020010B40200100C460010F6
:04463400004600102C
:10463800D02330B500251B0600245D5706E003682B
:10464800BFF35F8F1C6081F3108820BF0268EFF30F
:10465800108172B61368002BFCD0BFF35F8F03790B
:104668007F2BECD905710368BFF35F8F00221A60B6
:1046780081F3108830BDC04603000068EFF3108C4A
:1046880072B60268002AFCD0BFF35F8F04229A56E4
:10469800002A04DB002900D00A60002004E0D022B0
:1046A8000120120612681A711B68BFF35F8F00227F
:1046B8001A608CF3108870470268EFF3108172B6A5
:1046C8001368002BFCD0BFF35F8FFF2303710368CF
:1046D800BFF35F8F00221A6081F3108840BF7047D4
:1046E8007047C046100000000000000000000100F4
:1046F80000000000000000000000020000000000B0
:10470800000000000000030000000000000000009E
:104718000000FF000000000000B5486801318E4627
:104728000047704609380149884700BD95070010C1
:10473800D801002000000000680200207805002051
:1047480000000000000000008805002000000000B4
:104758000000000010000000000000000000000041
:10476800503300004C330000543300005233000033
:104778004D5300004D430000533400004334000003
:1047880011410010000000005D4100100000000011
:10479800000100000000000000000000193D0010AA
:1047A800892E0010A5350010593C0010ED020010AC
:04000005100001E9FD
:00000001FF
